{
  "_format": "hh-sol-artifact-1",
  "contractName": "DiscoverBlockchainToken",
  "sourceName": "contracts/tokenDB3.sol",
  "abi": [
    {
      "inputs": [
        {
          "internalType": "address[]",
          "name": "_founders",
          "type": "address[]"
        }
      ],
      "stateMutability": "nonpayable",
      "type": "constructor"
    },
    {
      "anonymous": false,
      "inputs": [
        {
          "indexed": true,
          "internalType": "address",
          "name": "account",
          "type": "address"
        },
        {
          "indexed": true,
          "internalType": "address",
          "name": "operator",
          "type": "address"
        },
        {
          "indexed": false,
          "internalType": "bool",
          "name": "approved",
          "type": "bool"
        }
      ],
      "name": "ApprovalForAll",
      "type": "event"
    },
    {
      "anonymous": false,
      "inputs": [
        {
          "indexed": true,
          "internalType": "address",
          "name": "operator",
          "type": "address"
        },
        {
          "indexed": true,
          "internalType": "address",
          "name": "from",
          "type": "address"
        },
        {
          "indexed": true,
          "internalType": "address",
          "name": "to",
          "type": "address"
        },
        {
          "indexed": false,
          "internalType": "uint256[]",
          "name": "ids",
          "type": "uint256[]"
        },
        {
          "indexed": false,
          "internalType": "uint256[]",
          "name": "values",
          "type": "uint256[]"
        }
      ],
      "name": "TransferBatch",
      "type": "event"
    },
    {
      "anonymous": false,
      "inputs": [
        {
          "indexed": true,
          "internalType": "address",
          "name": "operator",
          "type": "address"
        },
        {
          "indexed": true,
          "internalType": "address",
          "name": "from",
          "type": "address"
        },
        {
          "indexed": true,
          "internalType": "address",
          "name": "to",
          "type": "address"
        },
        {
          "indexed": false,
          "internalType": "uint256",
          "name": "id",
          "type": "uint256"
        },
        {
          "indexed": false,
          "internalType": "uint256",
          "name": "value",
          "type": "uint256"
        }
      ],
      "name": "TransferSingle",
      "type": "event"
    },
    {
      "anonymous": false,
      "inputs": [
        {
          "indexed": false,
          "internalType": "string",
          "name": "value",
          "type": "string"
        },
        {
          "indexed": true,
          "internalType": "uint256",
          "name": "id",
          "type": "uint256"
        }
      ],
      "name": "URI",
      "type": "event"
    },
    {
      "anonymous": false,
      "inputs": [
        {
          "indexed": false,
          "internalType": "address",
          "name": "",
          "type": "address"
        }
      ],
      "name": "newAgora",
      "type": "event"
    },
    {
      "anonymous": false,
      "inputs": [
        {
          "indexed": false,
          "internalType": "address[]",
          "name": "_newMembers",
          "type": "address[]"
        }
      ],
      "name": "newAssociates",
      "type": "event"
    },
    {
      "anonymous": false,
      "inputs": [
        {
          "indexed": false,
          "internalType": "address[]",
          "name": "",
          "type": "address[]"
        }
      ],
      "name": "newOstracismPartners",
      "type": "event"
    },
    {
      "anonymous": false,
      "inputs": [
        {
          "indexed": false,
          "internalType": "address[]",
          "name": "_newPartners",
          "type": "address[]"
        }
      ],
      "name": "newPartners",
      "type": "event"
    },
    {
      "anonymous": false,
      "inputs": [
        {
          "indexed": false,
          "internalType": "address",
          "name": "",
          "type": "address"
        }
      ],
      "name": "newPolis",
      "type": "event"
    },
    {
      "anonymous": false,
      "inputs": [
        {
          "indexed": false,
          "internalType": "address",
          "name": "",
          "type": "address"
        }
      ],
      "name": "tokenClaimed",
      "type": "event"
    },
    {
      "inputs": [],
      "name": "_totalSupply",
      "outputs": [
        {
          "internalType": "uint256",
          "name": "",
          "type": "uint256"
        }
      ],
      "stateMutability": "view",
      "type": "function"
    },
    {
      "inputs": [
        {
          "internalType": "address[]",
          "name": "_newMembers",
          "type": "address[]"
        }
      ],
      "name": "addAssociates",
      "outputs": [],
      "stateMutability": "nonpayable",
      "type": "function"
    },
    {
      "inputs": [
        {
          "internalType": "address[]",
          "name": "_newPartners",
          "type": "address[]"
        }
      ],
      "name": "addPartners",
      "outputs": [],
      "stateMutability": "nonpayable",
      "type": "function"
    },
    {
      "inputs": [],
      "name": "agoraAddress",
      "outputs": [
        {
          "internalType": "address",
          "name": "",
          "type": "address"
        }
      ],
      "stateMutability": "view",
      "type": "function"
    },
    {
      "inputs": [
        {
          "internalType": "address",
          "name": "",
          "type": "address"
        }
      ],
      "name": "associates",
      "outputs": [
        {
          "internalType": "bool",
          "name": "",
          "type": "bool"
        }
      ],
      "stateMutability": "view",
      "type": "function"
    },
    {
      "inputs": [
        {
          "internalType": "address",
          "name": "account",
          "type": "address"
        },
        {
          "internalType": "uint256",
          "name": "id",
          "type": "uint256"
        }
      ],
      "name": "balanceOf",
      "outputs": [
        {
          "internalType": "uint256",
          "name": "",
          "type": "uint256"
        }
      ],
      "stateMutability": "view",
      "type": "function"
    },
    {
      "inputs": [
        {
          "internalType": "address[]",
          "name": "accounts",
          "type": "address[]"
        },
        {
          "internalType": "uint256[]",
          "name": "ids",
          "type": "uint256[]"
        }
      ],
      "name": "balanceOfBatch",
      "outputs": [
        {
          "internalType": "uint256[]",
          "name": "",
          "type": "uint256[]"
        }
      ],
      "stateMutability": "view",
      "type": "function"
    },
    {
      "inputs": [],
      "name": "claimToken",
      "outputs": [],
      "stateMutability": "nonpayable",
      "type": "function"
    },
    {
      "inputs": [],
      "name": "dao",
      "outputs": [
        {
          "internalType": "bool",
          "name": "",
          "type": "bool"
        }
      ],
      "stateMutability": "view",
      "type": "function"
    },
    {
      "inputs": [
        {
          "internalType": "address",
          "name": "",
          "type": "address"
        }
      ],
      "name": "founders",
      "outputs": [
        {
          "internalType": "bool",
          "name": "",
          "type": "bool"
        }
      ],
      "stateMutability": "view",
      "type": "function"
    },
    {
      "inputs": [],
      "name": "getCurrentPolisAddress",
      "outputs": [
        {
          "internalType": "address",
          "name": "",
          "type": "address"
        }
      ],
      "stateMutability": "view",
      "type": "function"
    },
    {
      "inputs": [],
      "name": "getNumberAssociates",
      "outputs": [
        {
          "internalType": "uint256",
          "name": "",
          "type": "uint256"
        }
      ],
      "stateMutability": "view",
      "type": "function"
    },
    {
      "inputs": [
        {
          "internalType": "address",
          "name": "account",
          "type": "address"
        },
        {
          "internalType": "address",
          "name": "operator",
          "type": "address"
        }
      ],
      "name": "isApprovedForAll",
      "outputs": [
        {
          "internalType": "bool",
          "name": "",
          "type": "bool"
        }
      ],
      "stateMutability": "view",
      "type": "function"
    },
    {
      "inputs": [
        {
          "internalType": "address",
          "name": "_addy",
          "type": "address"
        }
      ],
      "name": "isAssociate",
      "outputs": [
        {
          "internalType": "bool",
          "name": "",
          "type": "bool"
        }
      ],
      "stateMutability": "view",
      "type": "function"
    },
    {
      "inputs": [
        {
          "internalType": "address",
          "name": "_addy",
          "type": "address"
        }
      ],
      "name": "isFounder",
      "outputs": [
        {
          "internalType": "bool",
          "name": "",
          "type": "bool"
        }
      ],
      "stateMutability": "view",
      "type": "function"
    },
    {
      "inputs": [
        {
          "internalType": "address",
          "name": "_addy",
          "type": "address"
        }
      ],
      "name": "isPartner",
      "outputs": [
        {
          "internalType": "bool",
          "name": "",
          "type": "bool"
        }
      ],
      "stateMutability": "view",
      "type": "function"
    },
    {
      "inputs": [],
      "name": "name",
      "outputs": [
        {
          "internalType": "string",
          "name": "",
          "type": "string"
        }
      ],
      "stateMutability": "view",
      "type": "function"
    },
    {
      "inputs": [],
      "name": "openTheCages",
      "outputs": [],
      "stateMutability": "nonpayable",
      "type": "function"
    },
    {
      "inputs": [
        {
          "internalType": "address",
          "name": "",
          "type": "address"
        }
      ],
      "name": "partners",
      "outputs": [
        {
          "internalType": "bool",
          "name": "",
          "type": "bool"
        }
      ],
      "stateMutability": "view",
      "type": "function"
    },
    {
      "inputs": [],
      "name": "polisAddress",
      "outputs": [
        {
          "internalType": "address",
          "name": "",
          "type": "address"
        }
      ],
      "stateMutability": "view",
      "type": "function"
    },
    {
      "inputs": [
        {
          "internalType": "address[]",
          "name": "_oldMembers",
          "type": "address[]"
        }
      ],
      "name": "removeAssociates",
      "outputs": [],
      "stateMutability": "nonpayable",
      "type": "function"
    },
    {
      "inputs": [
        {
          "internalType": "address[]",
          "name": "_oldPartners",
          "type": "address[]"
        }
      ],
      "name": "removePartners",
      "outputs": [],
      "stateMutability": "nonpayable",
      "type": "function"
    },
    {
      "inputs": [
        {
          "internalType": "address",
          "name": "from",
          "type": "address"
        },
        {
          "internalType": "address",
          "name": "to",
          "type": "address"
        },
        {
          "internalType": "uint256[]",
          "name": "ids",
          "type": "uint256[]"
        },
        {
          "internalType": "uint256[]",
          "name": "amounts",
          "type": "uint256[]"
        },
        {
          "internalType": "bytes",
          "name": "data",
          "type": "bytes"
        }
      ],
      "name": "safeBatchTransferFrom",
      "outputs": [],
      "stateMutability": "nonpayable",
      "type": "function"
    },
    {
      "inputs": [
        {
          "internalType": "address",
          "name": "from",
          "type": "address"
        },
        {
          "internalType": "address",
          "name": "to",
          "type": "address"
        },
        {
          "internalType": "uint256",
          "name": "id",
          "type": "uint256"
        },
        {
          "internalType": "uint256",
          "name": "amount",
          "type": "uint256"
        },
        {
          "internalType": "bytes",
          "name": "data",
          "type": "bytes"
        }
      ],
      "name": "safeTransferFrom",
      "outputs": [],
      "stateMutability": "nonpayable",
      "type": "function"
    },
    {
      "inputs": [
        {
          "internalType": "address",
          "name": "_agoraAddress",
          "type": "address"
        }
      ],
      "name": "setAgoraAddress",
      "outputs": [],
      "stateMutability": "nonpayable",
      "type": "function"
    },
    {
      "inputs": [
        {
          "internalType": "address",
          "name": "operator",
          "type": "address"
        },
        {
          "internalType": "bool",
          "name": "approved",
          "type": "bool"
        }
      ],
      "name": "setApprovalForAll",
      "outputs": [],
      "stateMutability": "nonpayable",
      "type": "function"
    },
    {
      "inputs": [
        {
          "internalType": "address",
          "name": "_newAddress",
          "type": "address"
        }
      ],
      "name": "setInitialAgoraAddress",
      "outputs": [],
      "stateMutability": "nonpayable",
      "type": "function"
    },
    {
      "inputs": [
        {
          "internalType": "address",
          "name": "_newAddress",
          "type": "address"
        }
      ],
      "name": "setInitialPolisAddress",
      "outputs": [],
      "stateMutability": "nonpayable",
      "type": "function"
    },
    {
      "inputs": [
        {
          "internalType": "address",
          "name": "_polisAddress",
          "type": "address"
        }
      ],
      "name": "setPolisAddress",
      "outputs": [],
      "stateMutability": "nonpayable",
      "type": "function"
    },
    {
      "inputs": [
        {
          "internalType": "bytes4",
          "name": "interfaceId",
          "type": "bytes4"
        }
      ],
      "name": "supportsInterface",
      "outputs": [
        {
          "internalType": "bool",
          "name": "",
          "type": "bool"
        }
      ],
      "stateMutability": "view",
      "type": "function"
    },
    {
      "inputs": [],
      "name": "symbol",
      "outputs": [
        {
          "internalType": "string",
          "name": "",
          "type": "string"
        }
      ],
      "stateMutability": "view",
      "type": "function"
    },
    {
      "inputs": [
        {
          "internalType": "address",
          "name": "",
          "type": "address"
        },
        {
          "internalType": "uint256",
          "name": "",
          "type": "uint256"
        }
      ],
      "name": "tokenClaimedList",
      "outputs": [
        {
          "internalType": "bool",
          "name": "",
          "type": "bool"
        }
      ],
      "stateMutability": "view",
      "type": "function"
    },
    {
      "inputs": [],
      "name": "totalAssociates",
      "outputs": [
        {
          "internalType": "uint256",
          "name": "",
          "type": "uint256"
        }
      ],
      "stateMutability": "view",
      "type": "function"
    },
    {
      "inputs": [],
      "name": "totalFounders",
      "outputs": [
        {
          "internalType": "uint256",
          "name": "",
          "type": "uint256"
        }
      ],
      "stateMutability": "view",
      "type": "function"
    },
    {
      "inputs": [],
      "name": "totalPartners",
      "outputs": [
        {
          "internalType": "uint256",
          "name": "",
          "type": "uint256"
        }
      ],
      "stateMutability": "view",
      "type": "function"
    },
    {
      "inputs": [],
      "name": "totalSupply",
      "outputs": [
        {
          "internalType": "uint256",
          "name": "",
          "type": "uint256"
        }
      ],
      "stateMutability": "view",
      "type": "function"
    },
    {
      "inputs": [
        {
          "internalType": "uint256",
          "name": "",
          "type": "uint256"
        }
      ],
      "name": "uri",
      "outputs": [
        {
          "internalType": "string",
          "name": "",
          "type": "string"
        }
      ],
      "stateMutability": "view",
      "type": "function"
    }
  ],
  "bytecode": "0x60c0604052601960808190527f446973636f76657220426c6f636b636861696e20546f6b656e0000000000000060a0908152620000409160099190620001e5565b506040805180820190915260038082526211109560ea1b60209092019182526200006d91600a91620001e5565b503480156200007b57600080fd5b5060405162002d1938038062002d198339810160408190526200009e91620002be565b60408051808201909152600a81526934b833399d179797171760b11b6020820152620000ca81620001cc565b5060005b8151811015620001c4576001600b6000848481518110620000f357620000f362000390565b60200260200101516001600160a01b03166001600160a01b0316815260200190815260200160002060006101000a81548160ff0219169083151502179055506001600c60008484815181106200014d576200014d62000390565b6020908102919091018101516001600160a01b031682528101919091526040016000908120805460ff19169215159290921790915560038054916200019283620003a6565b909155505060048054906000620001a983620003a6565b91905055508080620001bb90620003a6565b915050620000ce565b50506200040d565b8051620001e1906002906020840190620001e5565b5050565b828054620001f390620003d0565b90600052602060002090601f01602090048101928262000217576000855562000262565b82601f106200023257805160ff191683800117855562000262565b8280016001018555821562000262579182015b828111156200026257825182559160200191906001019062000245565b506200027092915062000274565b5090565b5b8082111562000270576000815560010162000275565b634e487b7160e01b600052604160045260246000fd5b80516001600160a01b0381168114620002b957600080fd5b919050565b60006020808385031215620002d257600080fd5b82516001600160401b0380821115620002ea57600080fd5b818501915085601f830112620002ff57600080fd5b8151818111156200031457620003146200028b565b8060051b604051601f19603f830116810181811085821117156200033c576200033c6200028b565b6040529182528482019250838101850191888311156200035b57600080fd5b938501935b8285101562000384576200037485620002a1565b8452938501939285019262000360565b98975050505050505050565b634e487b7160e01b600052603260045260246000fd5b6000600019821415620003c957634e487b7160e01b600052601160045260246000fd5b5060010190565b600181811c90821680620003e557607f821691505b602082108114156200040757634e487b7160e01b600052602260045260246000fd5b50919050565b6128fc806200041d6000396000f3fe608060405234801561001057600080fd5b50600436106102265760003560e01c8063567eda9211610130578063b521f0c3116100b8578063de6746a51161007c578063de6746a5146104fd578063e985e9c514610520578063f242432a1461055c578063f2f8788a1461056f578063fd5975a01461057757600080fd5b8063b521f0c314610476578063b8f66c5914610489578063c7b57841146104b5578063c9582252146104e1578063cd209f8b146104f457600080fd5b80638c0f9aac116100ff5780638c0f9aac146103f957806391eaa1f41461042557806395c336521461043857806395d89b411461045b578063a22cb4651461046357600080fd5b8063567eda921461039c57806374fd4655146103ca5780637e4cc585146103d35780638577a37b146103e657600080fd5b806327b5ba98116101b35780633eaaf86b116101825780633eaaf86b1461034b5780634162169f146103545780634451d89f146103615780634e1273f414610369578063542802a81461038957600080fd5b806327b5ba98146103095780632a6863041461031c5780632eb2c2d6146103255780633c45b03c1461033857600080fd5b80630510bb7c116101fa5780630510bb7c146102bc57806306fdde03146102c65780630e89341c146102db57806314d8a715146102ee57806318160ddd1461030157600080fd5b8062fdd58e1461022b57806301ffc9a71461025157806302095f9a1461027457806303ccdc7514610297575b600080fd5b61023e610239366004611fd6565b61058a565b6040519081526020015b60405180910390f35b61026461025f366004612019565b610621565b6040519015158152602001610248565b61026461028236600461203d565b600c6020526000908152604090205460ff1681565b6007546001600160a01b03165b6040516001600160a01b039091168152602001610248565b6102c4610673565b005b6102ce6106e2565b60405161024891906120a5565b6102ce6102e93660046120b8565b610770565b6102c46102fc36600461203d565b610804565b60065461023e565b6102c46103173660046121b0565b610886565b61023e60055481565b6102c46103333660046122c7565b610a14565b6102c461034636600461203d565b610bae565b61023e60065481565b600f546102649060ff1681565b6102c4610c30565b61037c610377366004612371565b610e88565b6040516102489190612410565b6102c46103973660046121b0565b610fb2565b6102646103aa366004611fd6565b600e60209081526000928352604080842090915290825290205460ff1681565b61023e60035481565b6102c46103e136600461203d565b6110c1565b6102c46103f436600461203d565b61116f565b61026461040736600461203d565b6001600160a01b03166000908152600d602052604090205460ff1690565b6102c46104333660046121b0565b61121d565b61026461044636600461203d565b600d6020526000908152604090205460ff1681565b6102ce61132c565b6102c4610471366004612423565b611339565b6007546102a4906001600160a01b031681565b61026461049736600461203d565b6001600160a01b03166000908152600c602052604090205460ff1690565b6102646104c336600461203d565b6001600160a01b03166000908152600b602052604090205460ff1690565b6102c46104ef3660046121b0565b611348565b61023e60045481565b61026461050b36600461203d565b600b6020526000908152604090205460ff1681565b61026461052e36600461245f565b6001600160a01b03918216600090815260016020908152604080832093909416825291909152205460ff1690565b6102c461056a366004612492565b61149b565b60045461023e565b6008546102a4906001600160a01b031681565b60006001600160a01b0383166105fb5760405162461bcd60e51b815260206004820152602b60248201527f455243313135353a2062616c616e636520717565727920666f7220746865207a60448201526a65726f206164647265737360a81b60648201526084015b60405180910390fd5b506000908152602081815260408083206001600160a01b03949094168352929052205490565b60006001600160e01b03198216636cdb3d1360e11b148061065257506001600160e01b031982166303a24d0760e21b145b8061066d57506301ffc9a760e01b6001600160e01b03198316145b92915050565b336000908152600b602052604090205460ff1680156106955750600f5460ff16155b806106b75750600f5460ff1680156106b757506008546001600160a01b031633145b6106d35760405162461bcd60e51b81526004016105f2906124f7565b600f805460ff19166001179055565b600980546106ef9061252e565b80601f016020809104026020016040519081016040528092919081815260200182805461071b9061252e565b80156107685780601f1061073d57610100808354040283529160200191610768565b820191906000526020600020905b81548152906001019060200180831161074b57829003601f168201915b505050505081565b60606002805461077f9061252e565b80601f01602080910402602001604051908101604052809291908181526020018280546107ab9061252e565b80156107f85780601f106107cd576101008083540402835291602001916107f8565b820191906000526020600020905b8154815290600101906020018083116107db57829003601f168201915b50505050509050919050565b336000908152600b602052604090205460ff1680156108265750600f5460ff16155b806108485750600f5460ff16801561084857506008546001600160a01b031633145b6108645760405162461bcd60e51b81526004016105f2906124f7565b600780546001600160a01b0319166001600160a01b0392909216919091179055565b336000908152600b602052604090205460ff1680156108a85750600f5460ff16155b806108ca5750600f5460ff1680156108ca57506008546001600160a01b031633145b6108e65760405162461bcd60e51b81526004016105f2906124f7565b60005b81518110156109d957600e600083838151811061090857610908612569565b6020908102919091018101516001600160a01b0316825281810192909252604090810160009081206002825290925290205460ff16156109665761096682828151811061095757610957612569565b6020026020010151600261156c565b6000600d600084848151811061097e5761097e612569565b6020908102919091018101516001600160a01b031682528101919091526040016000908120805460ff19169215159290921790915560058054916109c183612595565b919050555080806109d1906125ac565b9150506108e9565b507ff7ed7a62aac61c9b7899eb4f1064fe478c22b607dd9b0e23e8ccb955c41433a781604051610a0991906125c7565b60405180910390a150565b60005b8351811015610b9957838181518110610a3257610a32612569565b602002602001015160011415610a7657326000908152600c6020526040808220805460ff199081169091556001600160a01b03881683529120805490911660011790555b838181518110610a8857610a88612569565b602002602001015160021415610acc57326000908152600d6020526040808220805460ff199081169091556001600160a01b03881683529120805490911660011790555b326000908152600e6020526040812085518290879085908110610af157610af1612569565b6020026020010151815260200190815260200160002060006101000a81548160ff0219169083151502179055506001600e6000876001600160a01b03166001600160a01b031681526020019081526020016000206000868481518110610b5957610b59612569565b6020026020010151815260200190815260200160002060006101000a81548160ff0219169083151502179055508080610b91906125ac565b915050610a17565b50610ba785858585856115c4565b5050505050565b336000908152600b602052604090205460ff168015610bd05750600f5460ff16155b80610bf25750600f5460ff168015610bf257506008546001600160a01b031633145b610c0e5760405162461bcd60e51b81526004016105f2906124f7565b600880546001600160a01b0319166001600160a01b0392909216919091179055565b336000908152600b602052604090205460ff1680610c5d5750336000908152600c602052604090205460ff165b80610c775750336000908152600d602052604090205460ff165b610cc35760405162461bcd60e51b815260206004820152601b60248201527f556e617574686f72697a656420746f20636c61696d20746f6b656e000000000060448201526064016105f2565b336000908152600b602052604090205460ff1615610d4157336000908152600e6020908152604080832083805290915290205460ff1615610d165760405162461bcd60e51b81526004016105f290612614565b610d41336000600160405180604001604052806005815260200164030783030360dc1b815250611654565b336000908152600c602052604090205460ff1615610dbf57336000908152600e602090815260408083206001845290915290205460ff1615610d955760405162461bcd60e51b81526004016105f290612614565b610dbf3360018060405180604001604052806005815260200164030783030360dc1b815250611654565b336000908152600d602052604090205460ff1615610e3e57336000908152600e602090815260408083206002845290915290205460ff1615610e135760405162461bcd60e51b81526004016105f290612614565b610e3e336002600160405180604001604052806005815260200164030783030360dc1b815250611654565b60068054906000610e4e836125ac565b90915550506040513381527f101aa3126cf3af81eb7c3abd36105b5fd16d114d520847e9a7f88a1b2f080bfd9060200160405180910390a1565b60608151835114610eed5760405162461bcd60e51b815260206004820152602960248201527f455243313135353a206163636f756e747320616e6420696473206c656e677468604482015268040dad2e6dac2e8c6d60bb1b60648201526084016105f2565b6000835167ffffffffffffffff811115610f0957610f096120d1565b604051908082528060200260200182016040528015610f32578160200160208202803683370190505b50905060005b8451811015610faa57610f7d858281518110610f5657610f56612569565b6020026020010151858381518110610f7057610f70612569565b602002602001015161058a565b828281518110610f8f57610f8f612569565b6020908102919091010152610fa3816125ac565b9050610f38565b509392505050565b336000908152600b602052604090205460ff168015610fd45750600f5460ff16155b80610ff65750600f5460ff168015610ff657506008546001600160a01b031633145b6110125760405162461bcd60e51b81526004016105f2906124f7565b60005b8151811015611091576001600d600084848151811061103657611036612569565b6020908102919091018101516001600160a01b031682528101919091526040016000908120805460ff1916921515929092179091556005805491611079836125ac565b91905055508080611089906125ac565b915050611015565b507f2c296afc4a9191da235aa0ca29e50b0eded66b50ad28202b279956d872c9081681604051610a0991906125c7565b336000908152600b602052604090205460ff1680156110e35750600f5460ff16155b806111055750600f5460ff16801561110557506008546001600160a01b031633145b6111215760405162461bcd60e51b81526004016105f2906124f7565b600780546001600160a01b0319166001600160a01b0383169081179091556040519081527f80e043b79dddaa000b0ea072248381731675b34e3cb0602bb289ebfa5311490d90602001610a09565b336000908152600b602052604090205460ff1680156111915750600f5460ff16155b806111b35750600f5460ff1680156111b357506008546001600160a01b031633145b6111cf5760405162461bcd60e51b81526004016105f2906124f7565b600880546001600160a01b0319166001600160a01b0383169081179091556040519081527f58c054667614bcbb05d83b17f92677aea787b184433e4267c6737553cde151f690602001610a09565b336000908152600b602052604090205460ff16801561123f5750600f5460ff16155b806112615750600f5460ff16801561126157506008546001600160a01b031633145b61127d5760405162461bcd60e51b81526004016105f2906124f7565b60005b81518110156112fc576001600c60008484815181106112a1576112a1612569565b6020908102919091018101516001600160a01b031682528101919091526040016000908120805460ff19169215159290921790915560048054916112e4836125ac565b919050555080806112f4906125ac565b915050611280565b507fe5124ef914cd34cf9952d9abf27f6e94e96945c216c0b2f3b8962262f37ff0c381604051610a0991906125c7565b600a80546106ef9061252e565b61134433838361175e565b5050565b336000908152600b602052604090205460ff16801561136a5750600f5460ff16155b8061138c5750600f5460ff16801561138c57506008546001600160a01b031633145b6113a85760405162461bcd60e51b81526004016105f2906124f7565b60005b81518110156109d957600e60008383815181106113ca576113ca612569565b6020908102919091018101516001600160a01b0316825281810192909252604090810160009081206001825290925290205460ff16156114285761142882828151811061141957611419612569565b6020026020010151600161156c565b6000600c600084848151811061144057611440612569565b6020908102919091018101516001600160a01b031682528101919091526040016000908120805460ff191692151592909217909155600480549161148383612595565b91905055508080611493906125ac565b9150506113ab565b82600114156114d857326000908152600c6020526040808220805460ff199081169091556001600160a01b03871683529120805490911660011790555b826002141561151557326000908152600d6020526040808220805460ff199081169091556001600160a01b03871683529120805490911660011790555b326000908152600e602081815260408084208785528252808420805460ff199081169091556001600160a01b038916855292825280842087855290915290912080549091166001179055610ba7858585858561183f565b6001600160a01b0382166000908152600e602090815260408083208484529091529020805460ff191690556115ab82826115a6828261058a565b6118c6565b600680549060006115bb83612595565b91905055505050565b6001600160a01b0385163314806115e057506115e0853361052e565b6116475760405162461bcd60e51b815260206004820152603260248201527f455243313135353a207472616e736665722063616c6c6572206973206e6f74206044820152711bdddb995c881b9bdc88185c1c1c9bdd995960721b60648201526084016105f2565b610ba78585858585611a40565b6001600160a01b0384166116b45760405162461bcd60e51b815260206004820152602160248201527f455243313135353a206d696e7420746f20746865207a65726f206164647265736044820152607360f81b60648201526084016105f2565b336116ce816000876116c588611c1d565b610ba788611c1d565b6000848152602081815260408083206001600160a01b0389168452909152812080548592906116fe908490612643565b909155505060408051858152602081018590526001600160a01b0380881692600092918516917fc3d58168c5ae7397731d063d5bbf3d657854427343f4c083240f7aacaa2d0f62910160405180910390a4610ba781600087878787611c68565b816001600160a01b0316836001600160a01b031614156117d25760405162461bcd60e51b815260206004820152602960248201527f455243313135353a2073657474696e6720617070726f76616c20737461747573604482015268103337b91039b2b63360b91b60648201526084016105f2565b6001600160a01b03838116600081815260016020908152604080832094871680845294825291829020805460ff191686151590811790915591519182527f17307eab39ab6107e8899845ad3d59bd9653f200f220920489ca2b5937696c31910160405180910390a3505050565b6001600160a01b03851633148061185b575061185b853361052e565b6118b95760405162461bcd60e51b815260206004820152602960248201527f455243313135353a2063616c6c6572206973206e6f74206f776e6572206e6f7260448201526808185c1c1c9bdd995960ba1b60648201526084016105f2565b610ba78585858585611ddc565b6001600160a01b0383166119285760405162461bcd60e51b815260206004820152602360248201527f455243313135353a206275726e2066726f6d20746865207a65726f206164647260448201526265737360e81b60648201526084016105f2565b336119588185600061193987611c1d565b61194287611c1d565b5050604080516020810190915260009052505050565b6000838152602081815260408083206001600160a01b0388168452909152902054828110156119d55760405162461bcd60e51b8152602060048201526024808201527f455243313135353a206275726e20616d6f756e7420657863656564732062616c604482015263616e636560e01b60648201526084016105f2565b6000848152602081815260408083206001600160a01b03898116808652918452828520888703905582518981529384018890529092908616917fc3d58168c5ae7397731d063d5bbf3d657854427343f4c083240f7aacaa2d0f62910160405180910390a45050505050565b8151835114611aa25760405162461bcd60e51b815260206004820152602860248201527f455243313135353a2069647320616e6420616d6f756e7473206c656e677468206044820152670dad2e6dac2e8c6d60c31b60648201526084016105f2565b6001600160a01b038416611ac85760405162461bcd60e51b81526004016105f29061265b565b3360005b8451811015611baf576000858281518110611ae957611ae9612569565b602002602001015190506000858381518110611b0757611b07612569565b602090810291909101810151600084815280835260408082206001600160a01b038e168352909352919091205490915081811015611b575760405162461bcd60e51b81526004016105f2906126a0565b6000838152602081815260408083206001600160a01b038e8116855292528083208585039055908b16825281208054849290611b94908490612643565b9250508190555050505080611ba8906125ac565b9050611acc565b50846001600160a01b0316866001600160a01b0316826001600160a01b03167f4a39dc06d4c0dbc64b70af90fd698a233a518aa5d07e595d983b8c0526c8f7fb8787604051611bff9291906126ea565b60405180910390a4611c15818787878787611ef0565b505050505050565b60408051600180825281830190925260609160009190602080830190803683370190505090508281600081518110611c5757611c57612569565b602090810291909101015292915050565b6001600160a01b0384163b15611c155760405163f23a6e6160e01b81526001600160a01b0385169063f23a6e6190611cac9089908990889088908890600401612718565b602060405180830381600087803b158015611cc657600080fd5b505af1925050508015611cf6575060408051601f3d908101601f19168201909252611cf39181019061275d565b60015b611da357611d0261277a565b806308c379a01415611d3c5750611d17612796565b80611d225750611d3e565b8060405162461bcd60e51b81526004016105f291906120a5565b505b60405162461bcd60e51b815260206004820152603460248201527f455243313135353a207472616e7366657220746f206e6f6e20455243313135356044820152732932b1b2b4bb32b91034b6b83632b6b2b73a32b960611b60648201526084016105f2565b6001600160e01b0319811663f23a6e6160e01b14611dd35760405162461bcd60e51b81526004016105f290612820565b50505050505050565b6001600160a01b038416611e025760405162461bcd60e51b81526004016105f29061265b565b33611e128187876116c588611c1d565b6000848152602081815260408083206001600160a01b038a16845290915290205483811015611e535760405162461bcd60e51b81526004016105f2906126a0565b6000858152602081815260408083206001600160a01b038b8116855292528083208785039055908816825281208054869290611e90908490612643565b909155505060408051868152602081018690526001600160a01b03808916928a821692918616917fc3d58168c5ae7397731d063d5bbf3d657854427343f4c083240f7aacaa2d0f62910160405180910390a4611dd3828888888888611c68565b6001600160a01b0384163b15611c155760405163bc197c8160e01b81526001600160a01b0385169063bc197c8190611f349089908990889088908890600401612868565b602060405180830381600087803b158015611f4e57600080fd5b505af1925050508015611f7e575060408051601f3d908101601f19168201909252611f7b9181019061275d565b60015b611f8a57611d0261277a565b6001600160e01b0319811663bc197c8160e01b14611dd35760405162461bcd60e51b81526004016105f290612820565b80356001600160a01b0381168114611fd157600080fd5b919050565b60008060408385031215611fe957600080fd5b611ff283611fba565b946020939093013593505050565b6001600160e01b03198116811461201657600080fd5b50565b60006020828403121561202b57600080fd5b813561203681612000565b9392505050565b60006020828403121561204f57600080fd5b61203682611fba565b6000815180845260005b8181101561207e57602081850181015186830182015201612062565b81811115612090576000602083870101525b50601f01601f19169290920160200192915050565b6020815260006120366020830184612058565b6000602082840312156120ca57600080fd5b5035919050565b634e487b7160e01b600052604160045260246000fd5b601f8201601f1916810167ffffffffffffffff8111828210171561210d5761210d6120d1565b6040525050565b600067ffffffffffffffff82111561212e5761212e6120d1565b5060051b60200190565b600082601f83011261214957600080fd5b8135602061215682612114565b60405161216382826120e7565b83815260059390931b850182019282810191508684111561218357600080fd5b8286015b848110156121a55761219881611fba565b8352918301918301612187565b509695505050505050565b6000602082840312156121c257600080fd5b813567ffffffffffffffff8111156121d957600080fd5b6121e584828501612138565b949350505050565b600082601f8301126121fe57600080fd5b8135602061220b82612114565b60405161221882826120e7565b83815260059390931b850182019282810191508684111561223857600080fd5b8286015b848110156121a5578035835291830191830161223c565b600082601f83011261226457600080fd5b813567ffffffffffffffff81111561227e5761227e6120d1565b604051612295601f8301601f1916602001826120e7565b8181528460208386010111156122aa57600080fd5b816020850160208301376000918101602001919091529392505050565b600080600080600060a086880312156122df57600080fd5b6122e886611fba565b94506122f660208701611fba565b9350604086013567ffffffffffffffff8082111561231357600080fd5b61231f89838a016121ed565b9450606088013591508082111561233557600080fd5b61234189838a016121ed565b9350608088013591508082111561235757600080fd5b5061236488828901612253565b9150509295509295909350565b6000806040838503121561238457600080fd5b823567ffffffffffffffff8082111561239c57600080fd5b6123a886838701612138565b935060208501359150808211156123be57600080fd5b506123cb858286016121ed565b9150509250929050565b600081518084526020808501945080840160005b83811015612405578151875295820195908201906001016123e9565b509495945050505050565b60208152600061203660208301846123d5565b6000806040838503121561243657600080fd5b61243f83611fba565b91506020830135801515811461245457600080fd5b809150509250929050565b6000806040838503121561247257600080fd5b61247b83611fba565b915061248960208401611fba565b90509250929050565b600080600080600060a086880312156124aa57600080fd5b6124b386611fba565b94506124c160208701611fba565b93506040860135925060608601359150608086013567ffffffffffffffff8111156124eb57600080fd5b61236488828901612253565b6020808252601b908201527f43616c6c6572206973206e6f7420746865204c657669617468616e0000000000604082015260600190565b600181811c9082168061254257607f821691505b6020821081141561256357634e487b7160e01b600052602260045260246000fd5b50919050565b634e487b7160e01b600052603260045260246000fd5b634e487b7160e01b600052601160045260246000fd5b6000816125a4576125a461257f565b506000190190565b60006000198214156125c0576125c061257f565b5060010190565b6020808252825182820181905260009190848201906040850190845b818110156126085783516001600160a01b0316835292840192918401916001016125e3565b50909695505050505050565b602080825260159082015274151bdad95b88185b1c9958591e4818db185a5b5959605a1b604082015260600190565b600082198211156126565761265661257f565b500190565b60208082526025908201527f455243313135353a207472616e7366657220746f20746865207a65726f206164604082015264647265737360d81b606082015260800190565b6020808252602a908201527f455243313135353a20696e73756666696369656e742062616c616e636520666f60408201526939103a3930b739b332b960b11b606082015260800190565b6040815260006126fd60408301856123d5565b828103602084015261270f81856123d5565b95945050505050565b6001600160a01b03868116825285166020820152604081018490526060810183905260a06080820181905260009061275290830184612058565b979650505050505050565b60006020828403121561276f57600080fd5b815161203681612000565b600060033d11156127935760046000803e5060005160e01c5b90565b600060443d10156127a45790565b6040516003193d81016004833e81513d67ffffffffffffffff81602484011181841117156127d457505050505090565b82850191508151818111156127ec5750505050505090565b843d87010160208285010111156128065750505050505090565b612815602082860101876120e7565b509095945050505050565b60208082526028908201527f455243313135353a204552433131353552656365697665722072656a656374656040820152676420746f6b656e7360c01b606082015260800190565b6001600160a01b0386811682528516602082015260a060408201819052600090612894908301866123d5565b82810360608401526128a681866123d5565b905082810360808401526128ba8185612058565b9897505050505050505056fea2646970667358221220c128a9070417077bc5d81b394882ca9a2420036cb1a03ec2fc0bf8757972718c64736f6c63430008090033",
  "linkReferences": {},
  "deployedLinkReferences": {}
}