{
  "_format": "hh-sol-artifact-1",
  "contractName": "DiscoverBlockchainAgora",
  "sourceName": "contracts/agora3.sol",
  "abi": [
    {
      "inputs": [
        {
          "internalType": "address",
          "name": "_tokenDbAddress",
          "type": "address"
        },
        {
          "internalType": "address",
          "name": "_polisAddress",
          "type": "address"
        }
      ],
      "stateMutability": "nonpayable",
      "type": "constructor"
    },
    {
      "anonymous": false,
      "inputs": [
        {
          "indexed": false,
          "internalType": "address",
          "name": "previousAdmin",
          "type": "address"
        },
        {
          "indexed": false,
          "internalType": "address",
          "name": "newAdmin",
          "type": "address"
        }
      ],
      "name": "AdminChanged",
      "type": "event"
    },
    {
      "anonymous": false,
      "inputs": [
        {
          "indexed": true,
          "internalType": "address",
          "name": "beacon",
          "type": "address"
        }
      ],
      "name": "BeaconUpgraded",
      "type": "event"
    },
    {
      "anonymous": false,
      "inputs": [
        {
          "indexed": true,
          "internalType": "address",
          "name": "implementation",
          "type": "address"
        }
      ],
      "name": "Upgraded",
      "type": "event"
    },
    {
      "stateMutability": "payable",
      "type": "fallback"
    },
    {
      "inputs": [],
      "name": "_getDBTAddress",
      "outputs": [
        {
          "internalType": "address",
          "name": "",
          "type": "address"
        }
      ],
      "stateMutability": "view",
      "type": "function"
    },
    {
      "inputs": [],
      "name": "_getPolisAddress",
      "outputs": [
        {
          "internalType": "address",
          "name": "",
          "type": "address"
        }
      ],
      "stateMutability": "view",
      "type": "function"
    },
    {
      "stateMutability": "payable",
      "type": "receive"
    }
  ],
  "bytecode": "0x60806040523480156200001157600080fd5b5060405162000b7a38038062000b7a8339810160408190526200003491620004d3565b6040516001600160a01b0383166024820152819060440160408051601f198184030181529190526020810180516001600160e01b0316631e7f084d60e01b179052620000a260017f360894a13ba1a3210667c828492db98dca3e2076cc3735a920a3ca505d382bbd6200050b565b60008051602062000b3383398151915214620000c257620000c262000531565b620000d082826000620000e6565b50620000de90508262000123565b5050620005c9565b620000f1836200017e565b600082511180620000ff5750805b156200011e576200011c8383620001c060201b620000bd1760201c565b505b505050565b7f7e644d79422f17c01e4894b5f4f588d331ebfa28653d42ae832dc59e38c9798f6200014e620001ef565b604080516001600160a01b03928316815291841660208301520160405180910390a16200017b8162000228565b50565b6200018981620002dd565b6040516001600160a01b038216907fbc7cd75a20ee27fd9adebab32041f755214dbc6bffa90cc0225b39da2e5c2d3b90600090a250565b6060620001e8838360405180606001604052806027815260200162000b536027913962000380565b9392505050565b60006200021960008051602062000b1383398151915260001b6200046660201b620000e91760201c565b546001600160a01b0316919050565b6001600160a01b038116620002935760405162461bcd60e51b815260206004820152602660248201527f455243313936373a206e65772061646d696e20697320746865207a65726f206160448201526564647265737360d01b60648201526084015b60405180910390fd5b80620002bc60008051602062000b1383398151915260001b6200046660201b620000e91760201c565b80546001600160a01b0319166001600160a01b039290921691909117905550565b620002f3816200046960201b620000ec1760201c565b620003575760405162461bcd60e51b815260206004820152602d60248201527f455243313936373a206e657720696d706c656d656e746174696f6e206973206e60448201526c1bdd08184818dbdb9d1c9858dd609a1b60648201526084016200028a565b80620002bc60008051602062000b3383398151915260001b6200046660201b620000e91760201c565b60606001600160a01b0384163b620003ea5760405162461bcd60e51b815260206004820152602660248201527f416464726573733a2064656c65676174652063616c6c20746f206e6f6e2d636f6044820152651b9d1c9858dd60d21b60648201526084016200028a565b600080856001600160a01b03168560405162000407919062000576565b600060405180830381855af49150503d806000811462000444576040519150601f19603f3d011682016040523d82523d6000602084013e62000449565b606091505b5090925090506200045c82828662000478565b9695505050505050565b90565b6001600160a01b03163b151590565b6060831562000489575081620001e8565b8251156200049a5782518084602001fd5b8160405162461bcd60e51b81526004016200028a919062000594565b80516001600160a01b0381168114620004ce57600080fd5b919050565b60008060408385031215620004e757600080fd5b620004f283620004b6565b91506200050260208401620004b6565b90509250929050565b6000828210156200052c57634e487b7160e01b600052601160045260246000fd5b500390565b634e487b7160e01b600052600160045260246000fd5b60005b83811015620005645781810151838201526020016200054a565b838111156200011c5750506000910152565b600082516200058a81846020870162000547565b9190910192915050565b6020815260008251806020840152620005b581604085016020870162000547565b601f01601f19169190910160400192915050565b61053a80620005d96000396000f3fe60806040526004361061002d5760003560e01c8063d6510d0014610044578063e6400f5a146100755761003c565b3661003c5761003a61008a565b005b61003a61008a565b34801561005057600080fd5b506100596100a4565b6040516001600160a01b03909116815260200160405180910390f35b34801561008157600080fd5b506100596100b3565b6100926100fb565b6100a261009d6101a3565b6101ad565b565b60006100ae6101d1565b905090565b60006100ae6101a3565b60606100e283836040518060600160405280602781526020016104de60279139610204565b9392505050565b90565b6001600160a01b03163b151590565b60006101056100a4565b6001600160a01b03166303ccdc756040518163ffffffff1660e01b815260040160206040518083038186803b15801561013d57600080fd5b505afa158015610151573d6000803e3d6000fd5b505050506040513d601f19601f820116820180604052508101906101759190610435565b905061017f6102e6565b6001600160a01b0316816001600160a01b0316146101a0576101a08161030e565b50565b60006100ae6102e6565b3660008037600080366000845af43d6000803e8080156101cc573d6000f35b3d6000fd5b60007fb53127684a568b3173ae13b9f8a6016e243e63b6e8ee1178d6a717850b5d61035b546001600160a01b0316919050565b60606001600160a01b0384163b6102715760405162461bcd60e51b815260206004820152602660248201527f416464726573733a2064656c65676174652063616c6c20746f206e6f6e2d636f6044820152651b9d1c9858dd60d21b60648201526084015b60405180910390fd5b600080856001600160a01b03168560405161028c919061048e565b600060405180830381855af49150503d80600081146102c7576040519150601f19603f3d011682016040523d82523d6000602084013e6102cc565b606091505b50915091506102dc82828661034e565b9695505050505050565b60007f360894a13ba1a3210667c828492db98dca3e2076cc3735a920a3ca505d382bbc6101f5565b61031781610387565b6040516001600160a01b038216907fbc7cd75a20ee27fd9adebab32041f755214dbc6bffa90cc0225b39da2e5c2d3b90600090a250565b6060831561035d5750816100e2565b82511561036d5782518084602001fd5b8160405162461bcd60e51b815260040161026891906104aa565b6001600160a01b0381163b6103f45760405162461bcd60e51b815260206004820152602d60248201527f455243313936373a206e657720696d706c656d656e746174696f6e206973206e60448201526c1bdd08184818dbdb9d1c9858dd609a1b6064820152608401610268565b7f360894a13ba1a3210667c828492db98dca3e2076cc3735a920a3ca505d382bbc80546001600160a01b0319166001600160a01b0392909216919091179055565b60006020828403121561044757600080fd5b81516001600160a01b03811681146100e257600080fd5b60005b83811015610479578181015183820152602001610461565b83811115610488576000848401525b50505050565b600082516104a081846020870161045e565b9190910192915050565b60208152600082518060208401526104c981604085016020870161045e565b601f01601f1916919091016040019291505056fe416464726573733a206c6f772d6c6576656c2064656c65676174652063616c6c206661696c6564a264697066735822122028c741d8f8885233813bfd59c18a1eadd1f4ac96822034689d6886cb325567cb64736f6c63430008090033b53127684a568b3173ae13b9f8a6016e243e63b6e8ee1178d6a717850b5d6103360894a13ba1a3210667c828492db98dca3e2076cc3735a920a3ca505d382bbc416464726573733a206c6f772d6c6576656c2064656c65676174652063616c6c206661696c6564",
  "linkReferences": {},
  "deployedLinkReferences": {}
}