{
  "_format": "hh-sol-artifact-1",
  "contractName": "DiscoverBlockchainNewPolis",
  "sourceName": "contracts/newPolis.sol",
  "abi": [
    {
      "inputs": [
        {
          "internalType": "address",
          "name": "_addressDBT",
          "type": "address"
        }
      ],
      "stateMutability": "nonpayable",
      "type": "constructor"
    },
    {
      "anonymous": false,
      "inputs": [
        {
          "indexed": false,
          "internalType": "address",
          "name": "",
          "type": "address"
        },
        {
          "indexed": false,
          "internalType": "uint256",
          "name": "",
          "type": "uint256"
        }
      ],
      "name": "newProposal",
      "type": "event"
    },
    {
      "anonymous": false,
      "inputs": [
        {
          "indexed": false,
          "internalType": "address",
          "name": "",
          "type": "address"
        },
        {
          "indexed": false,
          "internalType": "uint256",
          "name": "",
          "type": "uint256"
        }
      ],
      "name": "newVote",
      "type": "event"
    },
    {
      "anonymous": false,
      "inputs": [
        {
          "indexed": false,
          "internalType": "uint256",
          "name": "",
          "type": "uint256"
        }
      ],
      "name": "proposalApproved",
      "type": "event"
    },
    {
      "anonymous": false,
      "inputs": [
        {
          "indexed": false,
          "internalType": "uint256",
          "name": "",
          "type": "uint256"
        }
      ],
      "name": "proposalExecuted",
      "type": "event"
    },
    {
      "anonymous": false,
      "inputs": [
        {
          "indexed": false,
          "internalType": "uint256",
          "name": "",
          "type": "uint256"
        }
      ],
      "name": "proposalRejected",
      "type": "event"
    },
    {
      "anonymous": false,
      "inputs": [
        {
          "indexed": false,
          "internalType": "address",
          "name": "",
          "type": "address"
        },
        {
          "indexed": false,
          "internalType": "address",
          "name": "",
          "type": "address"
        },
        {
          "indexed": false,
          "internalType": "uint256",
          "name": "",
          "type": "uint256"
        }
      ],
      "name": "reputationTransferred",
      "type": "event"
    },
    {
      "inputs": [],
      "name": "addressDBT",
      "outputs": [
        {
          "internalType": "address",
          "name": "",
          "type": "address"
        }
      ],
      "stateMutability": "view",
      "type": "function"
    },
    {
      "inputs": [
        {
          "internalType": "uint256",
          "name": "_id",
          "type": "uint256"
        }
      ],
      "name": "closeGovernanceProposal",
      "outputs": [],
      "stateMutability": "nonpayable",
      "type": "function"
    },
    {
      "inputs": [
        {
          "internalType": "uint256",
          "name": "_id",
          "type": "uint256"
        }
      ],
      "name": "closeReputationProposal",
      "outputs": [],
      "stateMutability": "nonpayable",
      "type": "function"
    },
    {
      "inputs": [
        {
          "internalType": "string[]",
          "name": "_objects",
          "type": "string[]"
        },
        {
          "internalType": "uint256",
          "name": "_endingVote",
          "type": "uint256"
        },
        {
          "internalType": "uint256",
          "name": "_expiration",
          "type": "uint256"
        }
      ],
      "name": "createBaseProposal",
      "outputs": [
        {
          "components": [
            {
              "internalType": "uint256",
              "name": "id",
              "type": "uint256"
            },
            {
              "internalType": "uint256",
              "name": "endingVote",
              "type": "uint256"
            },
            {
              "internalType": "uint256",
              "name": "inFavour",
              "type": "uint256"
            },
            {
              "internalType": "uint256",
              "name": "expiration",
              "type": "uint256"
            },
            {
              "internalType": "address",
              "name": "author",
              "type": "address"
            },
            {
              "internalType": "uint8",
              "name": "typeOfProposal",
              "type": "uint8"
            },
            {
              "internalType": "bool",
              "name": "isGovernanceProp",
              "type": "bool"
            },
            {
              "internalType": "bool[]",
              "name": "status",
              "type": "bool[]"
            },
            {
              "internalType": "address[]",
              "name": "proposedAddresses",
              "type": "address[]"
            },
            {
              "internalType": "uint256[]",
              "name": "proposedUints",
              "type": "uint256[]"
            },
            {
              "internalType": "bool[]",
              "name": "proposedBools",
              "type": "bool[]"
            },
            {
              "internalType": "string[]",
              "name": "proposedObjects",
              "type": "string[]"
            }
          ],
          "internalType": "struct DiscoverBlockchainNewPolis.proposal",
          "name": "",
          "type": "tuple"
        }
      ],
      "stateMutability": "nonpayable",
      "type": "function"
    },
    {
      "inputs": [
        {
          "internalType": "string[]",
          "name": "_objects",
          "type": "string[]"
        },
        {
          "internalType": "uint256",
          "name": "_endingVote",
          "type": "uint256"
        },
        {
          "internalType": "uint256",
          "name": "_expiration",
          "type": "uint256"
        },
        {
          "internalType": "bool",
          "name": "_isGovernanceProp",
          "type": "bool"
        },
        {
          "internalType": "uint8",
          "name": "_type",
          "type": "uint8"
        },
        {
          "internalType": "address[]",
          "name": "_proposedAddresses",
          "type": "address[]"
        },
        {
          "internalType": "uint256[]",
          "name": "_proposedUints",
          "type": "uint256[]"
        },
        {
          "internalType": "bool[]",
          "name": "_proposedBools",
          "type": "bool[]"
        }
      ],
      "name": "createFullProposal",
      "outputs": [
        {
          "components": [
            {
              "internalType": "uint256",
              "name": "id",
              "type": "uint256"
            },
            {
              "internalType": "uint256",
              "name": "endingVote",
              "type": "uint256"
            },
            {
              "internalType": "uint256",
              "name": "inFavour",
              "type": "uint256"
            },
            {
              "internalType": "uint256",
              "name": "expiration",
              "type": "uint256"
            },
            {
              "internalType": "address",
              "name": "author",
              "type": "address"
            },
            {
              "internalType": "uint8",
              "name": "typeOfProposal",
              "type": "uint8"
            },
            {
              "internalType": "bool",
              "name": "isGovernanceProp",
              "type": "bool"
            },
            {
              "internalType": "bool[]",
              "name": "status",
              "type": "bool[]"
            },
            {
              "internalType": "address[]",
              "name": "proposedAddresses",
              "type": "address[]"
            },
            {
              "internalType": "uint256[]",
              "name": "proposedUints",
              "type": "uint256[]"
            },
            {
              "internalType": "bool[]",
              "name": "proposedBools",
              "type": "bool[]"
            },
            {
              "internalType": "string[]",
              "name": "proposedObjects",
              "type": "string[]"
            }
          ],
          "internalType": "struct DiscoverBlockchainNewPolis.proposal",
          "name": "",
          "type": "tuple"
        }
      ],
      "stateMutability": "nonpayable",
      "type": "function"
    },
    {
      "inputs": [
        {
          "internalType": "uint256",
          "name": "_id",
          "type": "uint256"
        }
      ],
      "name": "getProposal",
      "outputs": [
        {
          "components": [
            {
              "internalType": "uint256",
              "name": "id",
              "type": "uint256"
            },
            {
              "internalType": "uint256",
              "name": "endingVote",
              "type": "uint256"
            },
            {
              "internalType": "uint256",
              "name": "inFavour",
              "type": "uint256"
            },
            {
              "internalType": "uint256",
              "name": "expiration",
              "type": "uint256"
            },
            {
              "internalType": "address",
              "name": "author",
              "type": "address"
            },
            {
              "internalType": "uint8",
              "name": "typeOfProposal",
              "type": "uint8"
            },
            {
              "internalType": "bool",
              "name": "isGovernanceProp",
              "type": "bool"
            },
            {
              "internalType": "bool[]",
              "name": "status",
              "type": "bool[]"
            },
            {
              "internalType": "address[]",
              "name": "proposedAddresses",
              "type": "address[]"
            },
            {
              "internalType": "uint256[]",
              "name": "proposedUints",
              "type": "uint256[]"
            },
            {
              "internalType": "bool[]",
              "name": "proposedBools",
              "type": "bool[]"
            },
            {
              "internalType": "string[]",
              "name": "proposedObjects",
              "type": "string[]"
            }
          ],
          "internalType": "struct DiscoverBlockchainNewPolis.proposal",
          "name": "",
          "type": "tuple"
        }
      ],
      "stateMutability": "view",
      "type": "function"
    },
    {
      "inputs": [
        {
          "internalType": "uint256",
          "name": "_id",
          "type": "uint256"
        }
      ],
      "name": "getProposalStatus",
      "outputs": [
        {
          "internalType": "string",
          "name": "",
          "type": "string"
        }
      ],
      "stateMutability": "view",
      "type": "function"
    },
    {
      "inputs": [
        {
          "internalType": "uint256",
          "name": "_typeOfProposal",
          "type": "uint256"
        }
      ],
      "name": "getProposalType",
      "outputs": [
        {
          "internalType": "string",
          "name": "",
          "type": "string"
        }
      ],
      "stateMutability": "pure",
      "type": "function"
    },
    {
      "inputs": [],
      "name": "getTest",
      "outputs": [
        {
          "internalType": "bool",
          "name": "",
          "type": "bool"
        }
      ],
      "stateMutability": "view",
      "type": "function"
    },
    {
      "inputs": [],
      "name": "proposalTypes",
      "outputs": [
        {
          "internalType": "uint256",
          "name": "",
          "type": "uint256"
        }
      ],
      "stateMutability": "view",
      "type": "function"
    },
    {
      "inputs": [
        {
          "internalType": "uint256",
          "name": "",
          "type": "uint256"
        }
      ],
      "name": "proposals",
      "outputs": [
        {
          "internalType": "uint256",
          "name": "id",
          "type": "uint256"
        },
        {
          "internalType": "uint256",
          "name": "endingVote",
          "type": "uint256"
        },
        {
          "internalType": "uint256",
          "name": "inFavour",
          "type": "uint256"
        },
        {
          "internalType": "uint256",
          "name": "expiration",
          "type": "uint256"
        },
        {
          "internalType": "address",
          "name": "author",
          "type": "address"
        },
        {
          "internalType": "uint8",
          "name": "typeOfProposal",
          "type": "uint8"
        },
        {
          "internalType": "bool",
          "name": "isGovernanceProp",
          "type": "bool"
        }
      ],
      "stateMutability": "view",
      "type": "function"
    },
    {
      "inputs": [
        {
          "internalType": "address",
          "name": "",
          "type": "address"
        }
      ],
      "name": "reputation",
      "outputs": [
        {
          "internalType": "uint256",
          "name": "",
          "type": "uint256"
        }
      ],
      "stateMutability": "view",
      "type": "function"
    },
    {
      "inputs": [],
      "name": "reputationIncentivePropAuthor",
      "outputs": [
        {
          "internalType": "uint8",
          "name": "",
          "type": "uint8"
        }
      ],
      "stateMutability": "view",
      "type": "function"
    },
    {
      "inputs": [],
      "name": "reputationIncentiveUtils",
      "outputs": [
        {
          "internalType": "uint8",
          "name": "",
          "type": "uint8"
        }
      ],
      "stateMutability": "view",
      "type": "function"
    },
    {
      "inputs": [],
      "name": "reputationIncentiveVote",
      "outputs": [
        {
          "internalType": "uint8",
          "name": "",
          "type": "uint8"
        }
      ],
      "stateMutability": "view",
      "type": "function"
    },
    {
      "inputs": [],
      "name": "reputationMalusRejectedPropAuthor",
      "outputs": [
        {
          "internalType": "uint8",
          "name": "",
          "type": "uint8"
        }
      ],
      "stateMutability": "view",
      "type": "function"
    },
    {
      "inputs": [
        {
          "internalType": "address",
          "name": "_addressDBT",
          "type": "address"
        }
      ],
      "name": "setAddressDBT",
      "outputs": [],
      "stateMutability": "nonpayable",
      "type": "function"
    },
    {
      "inputs": [],
      "name": "storeTest",
      "outputs": [],
      "stateMutability": "nonpayable",
      "type": "function"
    },
    {
      "inputs": [],
      "name": "test",
      "outputs": [
        {
          "internalType": "bool",
          "name": "",
          "type": "bool"
        }
      ],
      "stateMutability": "view",
      "type": "function"
    },
    {
      "inputs": [],
      "name": "totalProposals",
      "outputs": [
        {
          "internalType": "uint256",
          "name": "",
          "type": "uint256"
        }
      ],
      "stateMutability": "view",
      "type": "function"
    },
    {
      "inputs": [],
      "name": "totalReputation",
      "outputs": [
        {
          "internalType": "uint256",
          "name": "",
          "type": "uint256"
        }
      ],
      "stateMutability": "view",
      "type": "function"
    },
    {
      "inputs": [
        {
          "internalType": "address",
          "name": "_to",
          "type": "address"
        },
        {
          "internalType": "uint256",
          "name": "_amount",
          "type": "uint256"
        }
      ],
      "name": "transferReputation",
      "outputs": [],
      "stateMutability": "nonpayable",
      "type": "function"
    },
    {
      "inputs": [
        {
          "internalType": "uint256",
          "name": "_id",
          "type": "uint256"
        }
      ],
      "name": "voteGovernanceProposal",
      "outputs": [],
      "stateMutability": "nonpayable",
      "type": "function"
    },
    {
      "inputs": [
        {
          "internalType": "uint256",
          "name": "_id",
          "type": "uint256"
        },
        {
          "internalType": "uint256",
          "name": "_championPosition",
          "type": "uint256"
        }
      ],
      "name": "voteReputationProposal",
      "outputs": [],
      "stateMutability": "nonpayable",
      "type": "function"
    }
  ],
  "bytecode": "0x608060405260066003556007805463ffffffff191663050302011790553480156200002957600080fd5b5060405162003782380380620037828339810160408190526200004c9162000072565b600080546001600160a01b0319166001600160a01b0392909216919091179055620000a4565b6000602082840312156200008557600080fd5b81516001600160a01b03811681146200009d57600080fd5b9392505050565b6136ce80620000b46000396000f3fe608060405234801561001057600080fd5b50600436106101585760003560e01c8063a8cd0a80116100c3578063d978ffba1161007c578063d978ffba14610387578063e0cbc5561461039a578063e5835241146103c5578063ef6ad67a146103ce578063f8a8fd6d146103e1578063fcdf16cf146103f657600080fd5b8063a8cd0a80146102fc578063b12f34f71461031b578063b9f794511461032e578063c34b228c1461034e578063c7f758a814610361578063d69297701461037457600080fd5b806353d6163f1161011557806353d6163f1461027c5780635bdcdae71461028f5780636991b5e3146102a25780636e313463146102b9578063a16dfcea146102d3578063a78d80fc146102f357600080fd5b8063013cf08b1461015d5780631076eec71461020257806310c40573146102215780631e7f084d1461023357806320110f4714610248578063401853b71461025c575b600080fd5b6101ba61016b366004612dc9565b6004602081905260009182526040909120805460018201546002830154600384015493909401549193909290916001600160a01b0381169060ff600160a01b8204811691600160a81b90041687565b6040805197885260208801969096529486019390935260608501919091526001600160a01b0316608084015260ff1660a0830152151560c082015260e0015b60405180910390f35b60075461020f9060ff1681565b60405160ff90911681526020016101f9565b60075461020f90610100900460ff1681565b610246610241366004612dfe565b610409565b005b60075461020f906301000000900460ff1681565b61026f61026a366004612dc9565b610489565b6040516101f99190612e6d565b61024661028a366004612dc9565b610639565b61024661029d366004612dc9565b61098e565b6102ab60035481565b6040519081526020016101f9565b6102466007805464ff000000001916640100000000179055565b6102e66102e1366004612fd4565b610c74565b6040516101f9919061311a565b6102ab60025481565b600754640100000000900460ff165b60405190151581526020016101f9565b610246610329366004613220565b61110d565b6102ab61033c366004612dfe565b60066020526000908152604090205481565b61024661035c366004612dc9565b6111e4565b6102e661036f366004612dc9565b61141e565b60075461020f9062010000900460ff1681565b61026f610395366004612dc9565b61171b565b6000546103ad906001600160a01b031681565b6040516001600160a01b0390911681526020016101f9565b6102ab60015481565b6102466103dc36600461324a565b611877565b60075461030b90640100000000900460ff1681565b6102e66104043660046133c2565b611b9d565b6000546001600160a01b0316156104675760405162461bcd60e51b815260206004820152601f60248201527f444254206164647265737320616c726561647920696e697469616c697a65640060448201526064015b60405180910390fd5b600080546001600160a01b0319166001600160a01b0392909216919091179055565b600081815260046020526040902060050180546060919060029081106104b1576104b16134a4565b90600052602060002090602091828204019190069054906101000a900460ff16610611576000828152600460205260409020600501805460019081106104f9576104f96134a4565b90600052602060002090602091828204019190069054906101000a900460ff166105eb576000828152600460205260408120600501805490919061053f5761053f6134a4565b90600052602060002090602091828204019190069054906101000a900460ff166105c55760008281526004602052604090206003015442116105a0576040518060400160405280600781526020016650656e64696e6760c81b815250610633565b60405180604001604052806007815260200166115e1c1a5c995960ca1b815250610633565b6040518060400160405280600881526020016714995a9958dd195960c21b815250610633565b60405180604001604052806008815260200167105c1c1c9bdd995960c21b815250610633565b60405180604001604052806008815260200167115e1958dd5d195960c21b8152505b92915050565b600081815260046020526040902060010154819042116106925760405162461bcd60e51b81526020600482015260146024820152732b37ba34b7339034b99039ba34b6361037b832b760611b604482015260640161045e565b60008181526004602052604090206003015442106106e55760405162461bcd60e51b815260206004820152601060248201526f141c9bdc1bdcd85b08195e1c1a5c995960821b604482015260640161045e565b60008181526004602052604081206005018054909190610707576107076134a4565b90600052602060002090602091828204019190069054906101000a900460ff161561076f5760405162461bcd60e51b8152602060048201526018602482015277141c9bdc1bdcd85b08185b1c9958591e4818da1958dad95960421b604482015260640161045e565b6000818152600460205260408120600501805460019290610792576107926134a4565b90600052602060002090602091828204019190066101000a81548160ff0219169083151502179055506004600083815260200190815260200160002060040160159054906101000a900460ff16801561080757506000828152600460208190526040909120810154600160a01b900460ff1611155b61084f5760405162461bcd60e51b8152602060048201526019602482015278139bdd08184819dbdd995c9b985b98d9481c1c9bdc1bdcd85b603a1b604482015260640161045e565b610857612032565b6108629060326134d0565b60008381526004602052604090206002015461087f9060646134d0565b11156108b157600082815260046020819052604090912001546108ad9033906001600160a01b0316846120be565b5050565b6007546000838152600460208181526040808420909201546001600160a01b031683526006905290205461010090910460ff1611610956576007546000838152600460208181526040808420909201546001600160a01b03168352600690528120805461010090930460ff169290919061092c9084906134ef565b90915550506007546001805461010090920460ff16916000906109509084906134ef565b90915550505b6040518281527f06b150f9035f77a972ad99adc76f9fb863d9c8e2fd66ddf9b5d63b817758c898906020015b60405180910390a15050565b600081815260046020526040902060010154819042116109e75760405162461bcd60e51b81526020600482015260146024820152732b37ba34b7339034b99039ba34b6361037b832b760611b604482015260640161045e565b6000818152600460205260409020600301544210610a3a5760405162461bcd60e51b815260206004820152601060248201526f141c9bdc1bdcd85b08195e1c1a5c995960821b604482015260640161045e565b60008181526004602052604081206005018054909190610a5c57610a5c6134a4565b90600052602060002090602091828204019190069054906101000a900460ff1615610ac45760405162461bcd60e51b8152602060048201526018602482015277141c9bdc1bdcd85b08185b1c9958591e4818da1958dad95960421b604482015260640161045e565b6000818152600460205260408120600501805460019290610ae757610ae76134a4565b90600052602060002090602091828204019190066101000a81548160ff0219169083151502179055506004600083815260200190815260200160002060040160159054906101000a900460ff1615610b815760405162461bcd60e51b815260206004820152601d60248201527f4e6f742061206e6f6e2d676f7665726e616e63652070726f706f73616c000000604482015260640161045e565b60005b600083815260046020526040902060060154811015610c42576000838152600460205260409020600701805482908110610bc057610bc06134a4565b906000526020600020015460066000600460008781526020019081526020016000206006018481548110610bf657610bf66134a4565b60009182526020808320909101546001600160a01b0316835282019290925260400181208054909190610c2a908490613506565b90915550819050610c3a8161351e565b915050610b84565b5060008281526004602081905260409091200154610c6b9033906001600160a01b03168461270d565b6108ad826127a4565b610c7c612aea565b60005460405163b8f66c5960e01b81523360048201526001600160a01b039091169063b8f66c599060240160206040518083038186803b158015610cbf57600080fd5b505afa158015610cd3573d6000803e3d6000fd5b505050506040513d601f19601f82011682018060405250810190610cf79190613539565b610d135760405162461bcd60e51b815260040161045e90613556565b828211610d555760405162461bcd60e51b815260206004820152601060248201526f29b6b0b6361032bc3834b930ba34b7b760811b604482015260640161045e565b60028054906000610d658361351e565b90915550506002546000818152600460209081526040808320848155815160608101835284815292830184905290820192909252610da99060058301906003612b59565b5060038101849055600181018590556004810180546001600160a01b031916331790558551610de19060098301906020890190612bfe565b5060408051338152602081018490527fe91b617d4934aaed554665fb8bf916496704d82c4207445297286ab8f01f8e2a910160405180910390a160408051610180810182528254815260018301546020808301919091526002840154828401526003840154606083015260048401546001600160a01b038116608084015260ff600160a01b8204811660a0850152600160a81b90910416151560c08301526005840180548451818402810184019095528085529293859360e0860193919291830182828015610eef57602002820191906000526020600020906000905b825461010083900a900460ff161515815260206001928301818104948501949093039092029101808411610ebe5790505b5050505050815260200160068201805480602002602001604051908101604052809291908181526020018280548015610f5157602002820191906000526020600020905b81546001600160a01b03168152600190910190602001808311610f33575b5050505050815260200160078201805480602002602001604051908101604052809291908181526020018280548015610fa957602002820191906000526020600020905b815481526020019060010190808311610f95575b505050505081526020016008820180548060200260200160405190810160405280929190818152602001828054801561102157602002820191906000526020600020906000905b825461010083900a900460ff161515815260206001928301818104948501949093039092029101808411610ff05790505b5050505050815260200160098201805480602002602001604051908101604052809291908181526020016000905b828210156110fb57838290600052602060002001805461106e9061358d565b80601f016020809104026020016040519081016040528092919081815260200182805461109a9061358d565b80156110e75780601f106110bc576101008083540402835291602001916110e7565b820191906000526020600020905b8154815290600101906020018083116110ca57829003601f168201915b50505050508152602001906001019061104f565b50505091525090979650505050505050565b336000908152600660205260409020548111156111645760405162461bcd60e51b81526020600482015260156024820152742737ba1032b737bab3b4103932b83aba30ba34b7b760591b604482015260640161045e565b33600090815260066020526040808220805484900390556001600160a01b038416825281208054839290611199908490613506565b9091555050604080513381526001600160a01b03841660208201529081018290527f876f9f634fff6d8fdff5fcf86990324721479275661ea93bc1b94f39bcf082b990606001610982565b60005460405163b8f66c5960e01b81523360048201526001600160a01b039091169063b8f66c599060240160206040518083038186803b15801561122757600080fd5b505afa15801561123b573d6000803e3d6000fd5b505050506040513d601f19601f8201168201806040525081019061125f9190613539565b61127b5760405162461bcd60e51b815260040161045e90613556565b600081815260046020526040902060010154819042106112d05760405162461bcd60e51b815260206004820152601060248201526f159bdd1a5b99c81a185cc8195b99195960821b604482015260640161045e565b600081815260056020908152604080832033845290915290205460ff16156113315760405162461bcd60e51b8152602060048201526014602482015273165bdd49dd9948185b1c9958591e481d9bdd195960621b604482015260640161045e565b60008181526004602052604081206005018054909190611353576113536134a4565b90600052602060002090602091828204019190069054906101000a900460ff16156113905760405162461bcd60e51b815260040161045e906135c8565b60008181526005602090815260408083203384528252808320805460ff191660011790558483526004918290529091200154600160a81b900460ff166114145760405162461bcd60e51b8152602060048201526019602482015278139bdd08184819dbdd995c9b985b98d9481c1c9bdc1bdcd85b603a1b604482015260640161045e565b6108ad33836128b1565b611426612aea565b6000828152600460208181526040928390208351610180810185528154815260018201548184015260028201548186015260038201546060820152928101546001600160a01b038116608085015260ff600160a01b8204811660a0860152600160a81b90910416151560c08401526005810180548551818502810185019096528086529394919360e086019383018282801561150157602002820191906000526020600020906000905b825461010083900a900460ff1615158152602060019283018181049485019490930390920291018084116114d05790505b505050505081526020016006820180548060200260200160405190810160405280929190818152602001828054801561156357602002820191906000526020600020905b81546001600160a01b03168152600190910190602001808311611545575b50505050508152602001600782018054806020026020016040519081016040528092919081815260200182805480156115bb57602002820191906000526020600020905b8154815260200190600101908083116115a7575b505050505081526020016008820180548060200260200160405190810160405280929190818152602001828054801561163357602002820191906000526020600020906000905b825461010083900a900460ff1615158152602060019283018181049485019490930390920291018084116116025790505b5050505050815260200160098201805480602002602001604051908101604052809291908181526020016000905b8282101561170d5783829060005260206000200180546116809061358d565b80601f01602080910402602001604051908101604052809291908181526020018280546116ac9061358d565b80156116f95780601f106116ce576101008083540402835291602001916116f9565b820191906000526020600020905b8154815290600101906020018083116116dc57829003601f168201915b505050505081526020019060010190611661565b505050915250909392505050565b60608115611852578160011461182657816002146117fc57816003146117cb578160041461179c578160051461176d57604051806040016040528060048152602001634e6f6e6560e01b815250610633565b6040518060400160405280601181526020017052657075746174696f6e20766f74696e6760781b815250610633565b60405180604001604052806011815260200170506172746e6572204f737472616369736d60781b815250610633565b604051806040016040528060138152602001724173736f6369617465206f737472616369736d60681b815250610633565b6040518060400160405280600c81526020016b4e657720706172746e65727360a01b815250610633565b6040518060400160405280600e81526020016d4e6577206173736f63696174657360901b815250610633565b50506040805180820190915260098152684e657720706f6c697360b81b602082015290565b60005460405163b8f66c5960e01b81523360048201526001600160a01b039091169063b8f66c599060240160206040518083038186803b1580156118ba57600080fd5b505afa1580156118ce573d6000803e3d6000fd5b505050506040513d601f19601f820116820180604052508101906118f29190613539565b61190e5760405162461bcd60e51b815260040161045e90613556565b600082815260046020526040902060010154829042106119635760405162461bcd60e51b815260206004820152601060248201526f159bdd1a5b99c81a185cc8195b99195960821b604482015260640161045e565b600081815260056020908152604080832033845290915290205460ff16156119c45760405162461bcd60e51b8152602060048201526014602482015273165bdd49dd9948185b1c9958591e481d9bdd195960621b604482015260640161045e565b600081815260046020526040812060050180549091906119e6576119e66134a4565b90600052602060002090602091828204019190069054906101000a900460ff1615611a235760405162461bcd60e51b815260040161045e906135c8565b60008181526005602090815260408083203384528252808320805460ff191660011790558583526004918290529091200154600160a81b900460ff16158015611a8757506000838152600460208190526040909120810154600160a01b900460ff16115b611ad35760405162461bcd60e51b815260206004820152601d60248201527f4e6f742061206e6f6e2d676f7665726e616e63652070726f706f73616c000000604482015260640161045e565b6000838152600460205260409020600601805483908110611af657611af66134a4565b6000918252602090912001546001600160a01b0316331415611b485760405162461bcd60e51b815260206004820152600b60248201526a53656c662d766f74696e6760a81b604482015260640161045e565b600083815260046020526040902060070180546001919084908110611b6f57611b6f6134a4565b906000526020600020016000828254611b889190613506565b90915550611b98905033846128b1565b505050565b611ba5612aea565b60005460405163b8f66c5960e01b81523360048201526001600160a01b039091169063b8f66c599060240160206040518083038186803b158015611be857600080fd5b505afa158015611bfc573d6000803e3d6000fd5b505050506040513d601f19601f82011682018060405250810190611c209190613539565b611c3c5760405162461bcd60e51b815260040161045e90613556565b611c47898989610c74565b50835160011480611c5a575060ff851615155b611cba5760405162461bcd60e51b815260206004820152602b60248201527f4e657720706f6c69732070726f706f73616c2061636365707473206f6e6c792060448201526a6f6e65206164647265737360a81b606482015260840161045e565b6002546000818152600460208181526040909220908101805461ffff60a01b1916600160a81b8b15150260ff60a01b191617600160a01b60ff8b160217905586519091611d0e916006840191890190612c57565b508451611d249060078301906020880190612cac565b508351611d3a9060088301906020870190612b59565b5060408051610180810182528254815260018301546020808301919091526002840154828401526003840154606083015260048401546001600160a01b038116608084015260ff600160a01b8204811660a0850152600160a81b90910416151560c08301526005840180548451818402810184019095528085529293859360e0860193919291830182828015611e0f57602002820191906000526020600020906000905b825461010083900a900460ff161515815260206001928301818104948501949093039092029101808411611dde5790505b5050505050815260200160068201805480602002602001604051908101604052809291908181526020018280548015611e7157602002820191906000526020600020905b81546001600160a01b03168152600190910190602001808311611e53575b5050505050815260200160078201805480602002602001604051908101604052809291908181526020018280548015611ec957602002820191906000526020600020905b815481526020019060010190808311611eb5575b5050505050815260200160088201805480602002602001604051908101604052809291908181526020018280548015611f4157602002820191906000526020600020906000905b825461010083900a900460ff161515815260206001928301818104948501949093039092029101808411611f105790505b5050505050815260200160098201805480602002602001604051908101604052809291908181526020016000905b8282101561201b578382906000526020600020018054611f8e9061358d565b80601f0160208091040260200160405190810160405280929190818152602001828054611fba9061358d565b80156120075780601f10611fdc57610100808354040283529160200191612007565b820191906000526020600020905b815481529060010190602001808311611fea57829003601f168201915b505050505081526020019060010190611f6f565b505050915250909c9b505050505050505050505050565b60008060009054906101000a90046001600160a01b03166001600160a01b031663f2f8788a6040518163ffffffff1660e01b815260040160206040518083038186803b15801561208157600080fd5b505afa158015612095573d6000803e3d6000fd5b505050506040513d601f19601f820116820180604052508101906120b9919061360a565b905090565b6000818152600460205260409020600501805460019190829081106120e5576120e56134a4565b6000918252602080832081830401805460ff601f9094166101000a848102199091169515150294909417909355838252600492839052604090912090910154600160a01b9004166121d2576000805482825260046020526040822060060180546001600160a01b0390921692637e4cc58592612163576121636134a4565b60009182526020909120015460405160e083901b6001600160e01b03191681526001600160a01b039091166004820152602401600060405180830381600087803b1580156121b057600080fd5b505af11580156121c4573d6000803e3d6000fd5b505050506121d2338261296d565b60008181526004602081905260409091200154600160a01b900460ff1660011415612275576000805482825260046020819052604092839020925163247aa87d60e21b81526001600160a01b03909216926391eaa1f4926122399260069092019101613623565b600060405180830381600087803b15801561225357600080fd5b505af1158015612267573d6000803e3d6000fd5b50505050612275338261296d565b60008181526004602081905260409091200154600160a01b900460ff16600214156123185760008054828252600460208190526040928390209251630a85005560e31b81526001600160a01b039092169263542802a8926122dc9260069092019101613623565b600060405180830381600087803b1580156122f657600080fd5b505af115801561230a573d6000803e3d6000fd5b50505050612318338261296d565b60008181526004602081905260409091200154600160a01b900460ff166003141561249f57600080548282526004602081905260409283902092516364ac112960e11b81526001600160a01b039092169263c95822529261237f9260069092019101613623565b600060405180830381600087803b15801561239957600080fd5b505af11580156123ad573d6000803e3d6000fd5b5050505060005b60008281526004602052604090206006015481101561249457600660006004600085815260200190815260200160002060060183815481106123f8576123f86134a4565b60009182526020808320909101546001600160a01b0316835282019290925260400181205460018054919290916124309084906134ef565b90915550506000828152600460205260408120600690810180548391908590811061245d5761245d6134a4565b60009182526020808320909101546001600160a01b031683528201929092526040019020558061248c8161351e565b9150506123b4565b5061249f338261296d565b6000818152600460208190526040909120810154600160a01b900460ff16141561262557600080548282526004602081905260409283902092516304f6b75360e31b81526001600160a01b03909216926327b5ba98926125059260069092019101613623565b600060405180830381600087803b15801561251f57600080fd5b505af1158015612533573d6000803e3d6000fd5b5050505060005b60008281526004602052604090206006015481101561261a576006600060046000858152602001908152602001600020600601838154811061257e5761257e6134a4565b60009182526020808320909101546001600160a01b0316835282019290925260400181205460018054919290916125b69084906134ef565b9091555050600082815260046020526040812060069081018054839190859081106125e3576125e36134a4565b60009182526020808320909101546001600160a01b03168352820192909252604001902055806126128161351e565b91505061253a565b50612625338261296d565b6007546001600160a01b038416600090815260066020526040812080546201000090930460ff169290919061265b908490613506565b90915550506007546001600160a01b03831660009081526006602052604081208054630100000090930460ff1692909190612697908490613506565b90915550506007546126bb9060ff6301000000820481169162010000900416613673565b60ff16600160008282546126cf9190613506565b90915550506040518181527f8dd9748cdd51fa2d40c42afd5346df1fc62648f4d2f42308a42e02547cc3b565906020015b60405180910390a1505050565b600081815260046020526040902060050180546001919082908110612734576127346134a4565b90600052602060002090602091828204019190066101000a81548160ff021916908315150217905550600760029054906101000a900460ff1660ff1660066000856001600160a01b03166001600160a01b03168152602001908152602001600020600082825461265b9190613506565b6000818152600460205260409020600501805482919060019081106127cb576127cb6134a4565b90600052602060002090602091828204019190069054906101000a900460ff1661282f5760405162461bcd60e51b8152602060048201526015602482015274141c9bdc1bdcd85b081b9bdd08185c1c1c9bdd9959605a1b604482015260640161045e565b60008281526004602052604090206005018054600191906002908110612857576128576134a4565b90600052602060002090602091828204019190066101000a81548160ff0219169083151502179055507f103616e82ff731dff7ba12a2e8f4ee8092719781c951e26fb61427d34db64c918260405161098291815260200190565b60008181526004602052604081206002018054600192906128d3908490613506565b90915550506007546001600160a01b0383166000908152600660205260408120805460ff90931692909190612909908490613506565b90915550506007546001805460ff90921691600090612929908490613506565b9091555050604080516001600160a01b0384168152602081018390527f1a6a8a65ed2c2326ce1bbc6781faf147de39c5f1853c8ae35e2ef13d60b76b629101610982565b600081815260046020526040902060050180548291906001908110612994576129946134a4565b90600052602060002090602091828204019190069054906101000a900460ff166129f85760405162461bcd60e51b8152602060048201526015602482015274141c9bdc1bdcd85b081b9bdd08185c1c1c9bdd9959605a1b604482015260640161045e565b60008281526004602052604090206005018054600191906002908110612a2057612a206134a4565b90600052602060002090602091828204019190066101000a81548160ff021916908315150217905550600760029054906101000a900460ff1660ff1660066000856001600160a01b03166001600160a01b031681526020019081526020016000206000828254612a909190613506565b9091555050600754600180546201000090920460ff1691600090612ab5908490613506565b90915550506040518281527f103616e82ff731dff7ba12a2e8f4ee8092719781c951e26fb61427d34db64c9190602001612700565b6040518061018001604052806000815260200160008152602001600081526020016000815260200160006001600160a01b03168152602001600060ff16815260200160001515815260200160608152602001606081526020016060815260200160608152602001606081525090565b82805482825590600052602060002090601f01602090048101928215612bee5791602002820160005b83821115612bbf57835183826101000a81548160ff0219169083151502179055509260200192600101602081600001049283019260010302612b82565b8015612bec5782816101000a81549060ff0219169055600101602081600001049283019260010302612bbf565b505b50612bfa929150612ce7565b5090565b828054828255906000526020600020908101928215612c4b579160200282015b82811115612c4b5782518051612c3b918491602090910190612cfc565b5091602001919060010190612c1e565b50612bfa929150612d6f565b828054828255906000526020600020908101928215612bee579160200282015b82811115612bee57825182546001600160a01b0319166001600160a01b03909116178255602090920191600190910190612c77565b828054828255906000526020600020908101928215612bee579160200282015b82811115612bee578251825591602001919060010190612ccc565b5b80821115612bfa5760008155600101612ce8565b828054612d089061358d565b90600052602060002090601f016020900481019282612d2a5760008555612bee565b82601f10612d4357805160ff1916838001178555612bee565b82800160010185558215612bee5791820182811115612bee578251825591602001919060010190612ccc565b80821115612bfa576000612d838282612d8c565b50600101612d6f565b508054612d989061358d565b6000825580601f10612da8575050565b601f016020900490600052602060002090810190612dc69190612ce7565b50565b600060208284031215612ddb57600080fd5b5035919050565b80356001600160a01b0381168114612df957600080fd5b919050565b600060208284031215612e1057600080fd5b612e1982612de2565b9392505050565b6000815180845260005b81811015612e4657602081850181015186830182015201612e2a565b81811115612e58576000602083870101525b50601f01601f19169290920160200192915050565b602081526000612e196020830184612e20565b634e487b7160e01b600052604160045260246000fd5b604051601f8201601f1916810167ffffffffffffffff81118282101715612ebf57612ebf612e80565b604052919050565b600067ffffffffffffffff821115612ee157612ee1612e80565b5060051b60200190565b6000601f8381840112612efd57600080fd5b82356020612f12612f0d83612ec7565b612e96565b82815260059290921b85018101918181019087841115612f3157600080fd5b8287015b84811015612fc857803567ffffffffffffffff80821115612f565760008081fd5b818a0191508a603f830112612f6b5760008081fd5b85820135604082821115612f8157612f81612e80565b612f92828b01601f19168901612e96565b92508183528c81838601011115612fa95760008081fd5b8181850189850137506000908201870152845250918301918301612f35565b50979650505050505050565b600080600060608486031215612fe957600080fd5b833567ffffffffffffffff81111561300057600080fd5b61300c86828701612eeb565b9660208601359650604090950135949350505050565b600081518084526020808501945080840160005b83811015613054578151151587529582019590820190600101613036565b509495945050505050565b600081518084526020808501945080840160005b838110156130545781516001600160a01b031687529582019590820190600101613073565b600081518084526020808501945080840160005b83811015613054578151875295820195908201906001016130ac565b6000815180845260208085019450848260051b860182860160005b8581101561310d5783830389526130fb838351612e20565b988501989250908401906001016130e3565b5090979650505050505050565b60208152815160208201526020820151604082015260408201516060820152606082015160808201526000608083015161315f60a08401826001600160a01b03169052565b5060a083015160ff811660c08401525060c083015180151560e08401525060e0830151610180610100818186015261319b6101a0860184613022565b9250808601519050601f196101208187860301818801526131bc858461305f565b9450808801519250506101408187860301818801526131db8584613098565b9450808801519250506101608187860301818801526131fa8584613022565b90880151878203909201848801529350905061321683826130c8565b9695505050505050565b6000806040838503121561323357600080fd5b61323c83612de2565b946020939093013593505050565b6000806040838503121561325d57600080fd5b50508035926020909101359150565b8015158114612dc657600080fd5b8035612df98161326c565b803560ff81168114612df957600080fd5b600082601f8301126132a757600080fd5b813560206132b7612f0d83612ec7565b82815260059290921b840181019181810190868411156132d657600080fd5b8286015b848110156132f8576132eb81612de2565b83529183019183016132da565b509695505050505050565b600082601f83011261331457600080fd5b81356020613324612f0d83612ec7565b82815260059290921b8401810191818101908684111561334357600080fd5b8286015b848110156132f85780358352918301918301613347565b600082601f83011261336f57600080fd5b8135602061337f612f0d83612ec7565b82815260059290921b8401810191818101908684111561339e57600080fd5b8286015b848110156132f85780356133b58161326c565b83529183019183016133a2565b600080600080600080600080610100898b0312156133df57600080fd5b883567ffffffffffffffff808211156133f757600080fd5b6134038c838d01612eeb565b995060208b0135985060408b0135975061341f60608c0161327a565b965061342d60808c01613285565b955060a08b013591508082111561344357600080fd5b61344f8c838d01613296565b945060c08b013591508082111561346557600080fd5b6134718c838d01613303565b935060e08b013591508082111561348757600080fd5b506134948b828c0161335e565b9150509295985092959890939650565b634e487b7160e01b600052603260045260246000fd5b634e487b7160e01b600052601160045260246000fd5b60008160001904831182151516156134ea576134ea6134ba565b500290565b600082821015613501576135016134ba565b500390565b60008219821115613519576135196134ba565b500190565b6000600019821415613532576135326134ba565b5060010190565b60006020828403121561354b57600080fd5b8151612e198161326c565b6020808252601a908201527f43616c6c6572206973206e6f7420616e204173736f6369617465000000000000604082015260600190565b600181811c908216806135a157607f821691505b602082108114156135c257634e487b7160e01b600052602260045260246000fd5b50919050565b60208082526022908201527f50726f706f73616c2068617320616c7265616479206265656e20617070726f76604082015261195960f21b606082015260800190565b60006020828403121561361c57600080fd5b5051919050565b6020808252825482820181905260008481528281209092916040850190845b818110156136675783546001600160a01b031683526001938401939285019201613642565b50909695505050505050565b600060ff821660ff84168060ff03821115613690576136906134ba565b01939250505056fea2646970667358221220b64dcfc8a1b543307a9449f40a5df60e8cc63326597a08e52be341219d0b973f64736f6c63430008090033",
  "linkReferences": {},
  "deployedLinkReferences": {}
}