{
  "_format": "hh-sol-artifact-1",
  "contractName": "DiscoverBlockchainPolis",
  "sourceName": "contracts/polisV3.sol",
  "abi": [
    {
      "inputs": [
        {
          "internalType": "address",
          "name": "_addressDBT",
          "type": "address"
        }
      ],
      "stateMutability": "nonpayable",
      "type": "constructor"
    },
    {
      "anonymous": false,
      "inputs": [
        {
          "indexed": false,
          "internalType": "address",
          "name": "",
          "type": "address"
        },
        {
          "indexed": false,
          "internalType": "uint256",
          "name": "",
          "type": "uint256"
        }
      ],
      "name": "newProposal",
      "type": "event"
    },
    {
      "anonymous": false,
      "inputs": [
        {
          "indexed": false,
          "internalType": "address",
          "name": "",
          "type": "address"
        },
        {
          "indexed": false,
          "internalType": "uint256",
          "name": "",
          "type": "uint256"
        }
      ],
      "name": "newVote",
      "type": "event"
    },
    {
      "anonymous": false,
      "inputs": [
        {
          "indexed": false,
          "internalType": "uint256",
          "name": "",
          "type": "uint256"
        }
      ],
      "name": "proposalApproved",
      "type": "event"
    },
    {
      "anonymous": false,
      "inputs": [
        {
          "indexed": false,
          "internalType": "uint256",
          "name": "",
          "type": "uint256"
        }
      ],
      "name": "proposalExecuted",
      "type": "event"
    },
    {
      "anonymous": false,
      "inputs": [
        {
          "indexed": false,
          "internalType": "uint256",
          "name": "",
          "type": "uint256"
        }
      ],
      "name": "proposalRejected",
      "type": "event"
    },
    {
      "anonymous": false,
      "inputs": [
        {
          "indexed": false,
          "internalType": "address",
          "name": "",
          "type": "address"
        },
        {
          "indexed": false,
          "internalType": "address",
          "name": "",
          "type": "address"
        },
        {
          "indexed": false,
          "internalType": "uint256",
          "name": "",
          "type": "uint256"
        }
      ],
      "name": "reputationTransferred",
      "type": "event"
    },
    {
      "inputs": [],
      "name": "addressDBT",
      "outputs": [
        {
          "internalType": "address",
          "name": "",
          "type": "address"
        }
      ],
      "stateMutability": "view",
      "type": "function"
    },
    {
      "inputs": [
        {
          "internalType": "uint256",
          "name": "_id",
          "type": "uint256"
        }
      ],
      "name": "closeGovernanceProposal",
      "outputs": [],
      "stateMutability": "nonpayable",
      "type": "function"
    },
    {
      "inputs": [
        {
          "internalType": "uint256",
          "name": "_id",
          "type": "uint256"
        }
      ],
      "name": "closeReputationProposal",
      "outputs": [],
      "stateMutability": "nonpayable",
      "type": "function"
    },
    {
      "inputs": [
        {
          "internalType": "string[]",
          "name": "_objects",
          "type": "string[]"
        },
        {
          "internalType": "uint256",
          "name": "_endingVote",
          "type": "uint256"
        },
        {
          "internalType": "uint256",
          "name": "_expiration",
          "type": "uint256"
        }
      ],
      "name": "createBaseProposal",
      "outputs": [
        {
          "components": [
            {
              "internalType": "uint256",
              "name": "id",
              "type": "uint256"
            },
            {
              "internalType": "uint256",
              "name": "endingVote",
              "type": "uint256"
            },
            {
              "internalType": "uint256",
              "name": "inFavour",
              "type": "uint256"
            },
            {
              "internalType": "uint256",
              "name": "expiration",
              "type": "uint256"
            },
            {
              "internalType": "address",
              "name": "author",
              "type": "address"
            },
            {
              "internalType": "uint8",
              "name": "typeOfProposal",
              "type": "uint8"
            },
            {
              "internalType": "bool",
              "name": "isGovernanceProp",
              "type": "bool"
            },
            {
              "internalType": "bool[]",
              "name": "status",
              "type": "bool[]"
            },
            {
              "internalType": "address[]",
              "name": "proposedAddresses",
              "type": "address[]"
            },
            {
              "internalType": "uint256[]",
              "name": "proposedUints",
              "type": "uint256[]"
            },
            {
              "internalType": "bool[]",
              "name": "proposedBools",
              "type": "bool[]"
            },
            {
              "internalType": "string[]",
              "name": "proposedObjects",
              "type": "string[]"
            }
          ],
          "internalType": "struct DiscoverBlockchainPolis.proposal",
          "name": "",
          "type": "tuple"
        }
      ],
      "stateMutability": "nonpayable",
      "type": "function"
    },
    {
      "inputs": [
        {
          "internalType": "string[]",
          "name": "_objects",
          "type": "string[]"
        },
        {
          "internalType": "uint256",
          "name": "_endingVote",
          "type": "uint256"
        },
        {
          "internalType": "uint256",
          "name": "_expiration",
          "type": "uint256"
        },
        {
          "internalType": "bool",
          "name": "_isGovernanceProp",
          "type": "bool"
        },
        {
          "internalType": "uint8",
          "name": "_type",
          "type": "uint8"
        },
        {
          "internalType": "address[]",
          "name": "_proposedAddresses",
          "type": "address[]"
        },
        {
          "internalType": "uint256[]",
          "name": "_proposedUints",
          "type": "uint256[]"
        },
        {
          "internalType": "bool[]",
          "name": "_proposedBools",
          "type": "bool[]"
        }
      ],
      "name": "createFullProposal",
      "outputs": [
        {
          "components": [
            {
              "internalType": "uint256",
              "name": "id",
              "type": "uint256"
            },
            {
              "internalType": "uint256",
              "name": "endingVote",
              "type": "uint256"
            },
            {
              "internalType": "uint256",
              "name": "inFavour",
              "type": "uint256"
            },
            {
              "internalType": "uint256",
              "name": "expiration",
              "type": "uint256"
            },
            {
              "internalType": "address",
              "name": "author",
              "type": "address"
            },
            {
              "internalType": "uint8",
              "name": "typeOfProposal",
              "type": "uint8"
            },
            {
              "internalType": "bool",
              "name": "isGovernanceProp",
              "type": "bool"
            },
            {
              "internalType": "bool[]",
              "name": "status",
              "type": "bool[]"
            },
            {
              "internalType": "address[]",
              "name": "proposedAddresses",
              "type": "address[]"
            },
            {
              "internalType": "uint256[]",
              "name": "proposedUints",
              "type": "uint256[]"
            },
            {
              "internalType": "bool[]",
              "name": "proposedBools",
              "type": "bool[]"
            },
            {
              "internalType": "string[]",
              "name": "proposedObjects",
              "type": "string[]"
            }
          ],
          "internalType": "struct DiscoverBlockchainPolis.proposal",
          "name": "",
          "type": "tuple"
        }
      ],
      "stateMutability": "nonpayable",
      "type": "function"
    },
    {
      "inputs": [
        {
          "internalType": "uint256",
          "name": "_id",
          "type": "uint256"
        }
      ],
      "name": "getProposal",
      "outputs": [
        {
          "components": [
            {
              "internalType": "uint256",
              "name": "id",
              "type": "uint256"
            },
            {
              "internalType": "uint256",
              "name": "endingVote",
              "type": "uint256"
            },
            {
              "internalType": "uint256",
              "name": "inFavour",
              "type": "uint256"
            },
            {
              "internalType": "uint256",
              "name": "expiration",
              "type": "uint256"
            },
            {
              "internalType": "address",
              "name": "author",
              "type": "address"
            },
            {
              "internalType": "uint8",
              "name": "typeOfProposal",
              "type": "uint8"
            },
            {
              "internalType": "bool",
              "name": "isGovernanceProp",
              "type": "bool"
            },
            {
              "internalType": "bool[]",
              "name": "status",
              "type": "bool[]"
            },
            {
              "internalType": "address[]",
              "name": "proposedAddresses",
              "type": "address[]"
            },
            {
              "internalType": "uint256[]",
              "name": "proposedUints",
              "type": "uint256[]"
            },
            {
              "internalType": "bool[]",
              "name": "proposedBools",
              "type": "bool[]"
            },
            {
              "internalType": "string[]",
              "name": "proposedObjects",
              "type": "string[]"
            }
          ],
          "internalType": "struct DiscoverBlockchainPolis.proposal",
          "name": "",
          "type": "tuple"
        }
      ],
      "stateMutability": "view",
      "type": "function"
    },
    {
      "inputs": [
        {
          "internalType": "uint256",
          "name": "_id",
          "type": "uint256"
        }
      ],
      "name": "getProposalStatus",
      "outputs": [
        {
          "internalType": "string",
          "name": "",
          "type": "string"
        }
      ],
      "stateMutability": "view",
      "type": "function"
    },
    {
      "inputs": [
        {
          "internalType": "uint256",
          "name": "_typeOfProposal",
          "type": "uint256"
        }
      ],
      "name": "getProposalType",
      "outputs": [
        {
          "internalType": "string",
          "name": "",
          "type": "string"
        }
      ],
      "stateMutability": "pure",
      "type": "function"
    },
    {
      "inputs": [],
      "name": "proposalTypes",
      "outputs": [
        {
          "internalType": "uint256",
          "name": "",
          "type": "uint256"
        }
      ],
      "stateMutability": "view",
      "type": "function"
    },
    {
      "inputs": [
        {
          "internalType": "uint256",
          "name": "",
          "type": "uint256"
        }
      ],
      "name": "proposals",
      "outputs": [
        {
          "internalType": "uint256",
          "name": "id",
          "type": "uint256"
        },
        {
          "internalType": "uint256",
          "name": "endingVote",
          "type": "uint256"
        },
        {
          "internalType": "uint256",
          "name": "inFavour",
          "type": "uint256"
        },
        {
          "internalType": "uint256",
          "name": "expiration",
          "type": "uint256"
        },
        {
          "internalType": "address",
          "name": "author",
          "type": "address"
        },
        {
          "internalType": "uint8",
          "name": "typeOfProposal",
          "type": "uint8"
        },
        {
          "internalType": "bool",
          "name": "isGovernanceProp",
          "type": "bool"
        }
      ],
      "stateMutability": "view",
      "type": "function"
    },
    {
      "inputs": [
        {
          "internalType": "address",
          "name": "",
          "type": "address"
        }
      ],
      "name": "reputation",
      "outputs": [
        {
          "internalType": "uint256",
          "name": "",
          "type": "uint256"
        }
      ],
      "stateMutability": "view",
      "type": "function"
    },
    {
      "inputs": [],
      "name": "reputationIncentivePropAuthor",
      "outputs": [
        {
          "internalType": "uint8",
          "name": "",
          "type": "uint8"
        }
      ],
      "stateMutability": "view",
      "type": "function"
    },
    {
      "inputs": [],
      "name": "reputationIncentiveUtils",
      "outputs": [
        {
          "internalType": "uint8",
          "name": "",
          "type": "uint8"
        }
      ],
      "stateMutability": "view",
      "type": "function"
    },
    {
      "inputs": [],
      "name": "reputationIncentiveVote",
      "outputs": [
        {
          "internalType": "uint8",
          "name": "",
          "type": "uint8"
        }
      ],
      "stateMutability": "view",
      "type": "function"
    },
    {
      "inputs": [],
      "name": "reputationMalusRejectedPropAuthor",
      "outputs": [
        {
          "internalType": "uint8",
          "name": "",
          "type": "uint8"
        }
      ],
      "stateMutability": "view",
      "type": "function"
    },
    {
      "inputs": [
        {
          "internalType": "address",
          "name": "_addressDBT",
          "type": "address"
        }
      ],
      "name": "setAddressDBT",
      "outputs": [],
      "stateMutability": "nonpayable",
      "type": "function"
    },
    {
      "inputs": [],
      "name": "totalProposals",
      "outputs": [
        {
          "internalType": "uint256",
          "name": "",
          "type": "uint256"
        }
      ],
      "stateMutability": "view",
      "type": "function"
    },
    {
      "inputs": [],
      "name": "totalReputation",
      "outputs": [
        {
          "internalType": "uint256",
          "name": "",
          "type": "uint256"
        }
      ],
      "stateMutability": "view",
      "type": "function"
    },
    {
      "inputs": [
        {
          "internalType": "address",
          "name": "_to",
          "type": "address"
        },
        {
          "internalType": "uint256",
          "name": "_amount",
          "type": "uint256"
        }
      ],
      "name": "transferReputation",
      "outputs": [],
      "stateMutability": "nonpayable",
      "type": "function"
    },
    {
      "inputs": [
        {
          "internalType": "uint256",
          "name": "_id",
          "type": "uint256"
        }
      ],
      "name": "voteGovernanceProposal",
      "outputs": [],
      "stateMutability": "nonpayable",
      "type": "function"
    },
    {
      "inputs": [
        {
          "internalType": "uint256",
          "name": "_id",
          "type": "uint256"
        },
        {
          "internalType": "uint256",
          "name": "_championPosition",
          "type": "uint256"
        }
      ],
      "name": "voteReputationProposal",
      "outputs": [],
      "stateMutability": "nonpayable",
      "type": "function"
    }
  ],
  "bytecode": "0x608060405260066003556007805463ffffffff191663050302011790553480156200002957600080fd5b5060405162003716380380620037168339810160408190526200004c9162000072565b600080546001600160a01b0319166001600160a01b0392909216919091179055620000a4565b6000602082840312156200008557600080fd5b81516001600160a01b03811681146200009d57600080fd5b9392505050565b61366280620000b46000396000f3fe608060405234801561001057600080fd5b50600436106101375760003560e01c8063a78d80fc116100b8578063d69297701161007c578063d69297701461031a578063d978ffba1461032d578063e0cbc55614610340578063e58352411461036b578063ef6ad67a14610374578063fcdf16cf1461038757600080fd5b8063a78d80fc146102b8578063b12f34f7146102c1578063b9f79451146102d4578063c34b228c146102f4578063c7f758a81461030757600080fd5b8063401853b7116100ff578063401853b71461023b57806353d6163f1461025b5780635bdcdae71461026e5780636991b5e314610281578063a16dfcea1461029857600080fd5b8063013cf08b1461013c5780631076eec7146101e157806310c40573146102005780631e7f084d1461021257806320110f4714610227575b600080fd5b61019961014a366004612d5a565b6004602081905260009182526040909120805460018201546002830154600384015493909401549193909290916001600160a01b0381169060ff600160a01b8204811691600160a81b90041687565b6040805197885260208801969096529486019390935260608501919091526001600160a01b0316608084015260ff1660a0830152151560c082015260e0015b60405180910390f35b6007546101ee9060ff1681565b60405160ff90911681526020016101d8565b6007546101ee90610100900460ff1681565b610225610220366004612d8f565b61039a565b005b6007546101ee906301000000900460ff1681565b61024e610249366004612d5a565b61041a565b6040516101d89190612dfe565b610225610269366004612d5a565b6105ca565b61022561027c366004612d5a565b61091f565b61028a60035481565b6040519081526020016101d8565b6102ab6102a6366004612f65565b610c05565b6040516101d891906130ae565b61028a60025481565b6102256102cf3660046131b4565b61109e565b61028a6102e2366004612d8f565b60066020526000908152604090205481565b610225610302366004612d5a565b611175565b6102ab610315366004612d5a565b6113af565b6007546101ee9062010000900460ff1681565b61024e61033b366004612d5a565b6116ac565b600054610353906001600160a01b031681565b6040516001600160a01b0390911681526020016101d8565b61028a60015481565b6102256103823660046131de565b611808565b6102ab610395366004613356565b611b2e565b6000546001600160a01b0316156103f85760405162461bcd60e51b815260206004820152601f60248201527f444254206164647265737320616c726561647920696e697469616c697a65640060448201526064015b60405180910390fd5b600080546001600160a01b0319166001600160a01b0392909216919091179055565b6000818152600460205260409020600501805460609190600290811061044257610442613438565b90600052602060002090602091828204019190069054906101000a900460ff166105a25760008281526004602052604090206005018054600190811061048a5761048a613438565b90600052602060002090602091828204019190069054906101000a900460ff1661057c57600082815260046020526040812060050180549091906104d0576104d0613438565b90600052602060002090602091828204019190069054906101000a900460ff16610556576000828152600460205260409020600301544211610531576040518060400160405280600781526020016650656e64696e6760c81b8152506105c4565b60405180604001604052806007815260200166115e1c1a5c995960ca1b8152506105c4565b6040518060400160405280600881526020016714995a9958dd195960c21b8152506105c4565b60405180604001604052806008815260200167105c1c1c9bdd995960c21b8152506105c4565b60405180604001604052806008815260200167115e1958dd5d195960c21b8152505b92915050565b600081815260046020526040902060010154819042116106235760405162461bcd60e51b81526020600482015260146024820152732b37ba34b7339034b99039ba34b6361037b832b760611b60448201526064016103ef565b60008181526004602052604090206003015442106106765760405162461bcd60e51b815260206004820152601060248201526f141c9bdc1bdcd85b08195e1c1a5c995960821b60448201526064016103ef565b6000818152600460205260408120600501805490919061069857610698613438565b90600052602060002090602091828204019190069054906101000a900460ff16156107005760405162461bcd60e51b8152602060048201526018602482015277141c9bdc1bdcd85b08185b1c9958591e4818da1958dad95960421b60448201526064016103ef565b600081815260046020526040812060050180546001929061072357610723613438565b90600052602060002090602091828204019190066101000a81548160ff0219169083151502179055506004600083815260200190815260200160002060040160159054906101000a900460ff16801561079857506000828152600460208190526040909120810154600160a01b900460ff1611155b6107e05760405162461bcd60e51b8152602060048201526019602482015278139bdd08184819dbdd995c9b985b98d9481c1c9bdc1bdcd85b603a1b60448201526064016103ef565b6107e8611fc3565b6107f3906032613464565b600083815260046020526040902060020154610810906064613464565b1115610842576000828152600460208190526040909120015461083e9033906001600160a01b03168461204f565b5050565b6007546000838152600460208181526040808420909201546001600160a01b031683526006905290205461010090910460ff16116108e7576007546000838152600460208181526040808420909201546001600160a01b03168352600690528120805461010090930460ff16929091906108bd908490613483565b90915550506007546001805461010090920460ff16916000906108e1908490613483565b90915550505b6040518281527f06b150f9035f77a972ad99adc76f9fb863d9c8e2fd66ddf9b5d63b817758c898906020015b60405180910390a15050565b600081815260046020526040902060010154819042116109785760405162461bcd60e51b81526020600482015260146024820152732b37ba34b7339034b99039ba34b6361037b832b760611b60448201526064016103ef565b60008181526004602052604090206003015442106109cb5760405162461bcd60e51b815260206004820152601060248201526f141c9bdc1bdcd85b08195e1c1a5c995960821b60448201526064016103ef565b600081815260046020526040812060050180549091906109ed576109ed613438565b90600052602060002090602091828204019190069054906101000a900460ff1615610a555760405162461bcd60e51b8152602060048201526018602482015277141c9bdc1bdcd85b08185b1c9958591e4818da1958dad95960421b60448201526064016103ef565b6000818152600460205260408120600501805460019290610a7857610a78613438565b90600052602060002090602091828204019190066101000a81548160ff0219169083151502179055506004600083815260200190815260200160002060040160159054906101000a900460ff1615610b125760405162461bcd60e51b815260206004820152601d60248201527f4e6f742061206e6f6e2d676f7665726e616e63652070726f706f73616c00000060448201526064016103ef565b60005b600083815260046020526040902060060154811015610bd3576000838152600460205260409020600701805482908110610b5157610b51613438565b906000526020600020015460066000600460008781526020019081526020016000206006018481548110610b8757610b87613438565b60009182526020808320909101546001600160a01b0316835282019290925260400181208054909190610bbb90849061349a565b90915550819050610bcb816134b2565b915050610b15565b5060008281526004602081905260409091200154610bfc9033906001600160a01b03168461269e565b61083e82612735565b610c0d612a7b565b60005460405163b8f66c5960e01b81523360048201526001600160a01b039091169063b8f66c599060240160206040518083038186803b158015610c5057600080fd5b505afa158015610c64573d6000803e3d6000fd5b505050506040513d601f19601f82011682018060405250810190610c8891906134cd565b610ca45760405162461bcd60e51b81526004016103ef906134ea565b828211610ce65760405162461bcd60e51b815260206004820152601060248201526f29b6b0b6361032bc3834b930ba34b7b760811b60448201526064016103ef565b60028054906000610cf6836134b2565b90915550506002546000818152600460209081526040808320848155815160608101835284815292830184905290820192909252610d3a9060058301906003612aea565b5060038101849055600181018590556004810180546001600160a01b031916331790558551610d729060098301906020890190612b8f565b5060408051338152602081018490527fe91b617d4934aaed554665fb8bf916496704d82c4207445297286ab8f01f8e2a910160405180910390a160408051610180810182528254815260018301546020808301919091526002840154828401526003840154606083015260048401546001600160a01b038116608084015260ff600160a01b8204811660a0850152600160a81b90910416151560c08301526005840180548451818402810184019095528085529293859360e0860193919291830182828015610e8057602002820191906000526020600020906000905b825461010083900a900460ff161515815260206001928301818104948501949093039092029101808411610e4f5790505b5050505050815260200160068201805480602002602001604051908101604052809291908181526020018280548015610ee257602002820191906000526020600020905b81546001600160a01b03168152600190910190602001808311610ec4575b5050505050815260200160078201805480602002602001604051908101604052809291908181526020018280548015610f3a57602002820191906000526020600020905b815481526020019060010190808311610f26575b5050505050815260200160088201805480602002602001604051908101604052809291908181526020018280548015610fb257602002820191906000526020600020906000905b825461010083900a900460ff161515815260206001928301818104948501949093039092029101808411610f815790505b5050505050815260200160098201805480602002602001604051908101604052809291908181526020016000905b8282101561108c578382906000526020600020018054610fff90613521565b80601f016020809104026020016040519081016040528092919081815260200182805461102b90613521565b80156110785780601f1061104d57610100808354040283529160200191611078565b820191906000526020600020905b81548152906001019060200180831161105b57829003601f168201915b505050505081526020019060010190610fe0565b50505091525090979650505050505050565b336000908152600660205260409020548111156110f55760405162461bcd60e51b81526020600482015260156024820152742737ba1032b737bab3b4103932b83aba30ba34b7b760591b60448201526064016103ef565b33600090815260066020526040808220805484900390556001600160a01b03841682528120805483929061112a90849061349a565b9091555050604080513381526001600160a01b03841660208201529081018290527f876f9f634fff6d8fdff5fcf86990324721479275661ea93bc1b94f39bcf082b990606001610913565b60005460405163b8f66c5960e01b81523360048201526001600160a01b039091169063b8f66c599060240160206040518083038186803b1580156111b857600080fd5b505afa1580156111cc573d6000803e3d6000fd5b505050506040513d601f19601f820116820180604052508101906111f091906134cd565b61120c5760405162461bcd60e51b81526004016103ef906134ea565b600081815260046020526040902060010154819042106112615760405162461bcd60e51b815260206004820152601060248201526f159bdd1a5b99c81a185cc8195b99195960821b60448201526064016103ef565b600081815260056020908152604080832033845290915290205460ff16156112c25760405162461bcd60e51b8152602060048201526014602482015273165bdd49dd9948185b1c9958591e481d9bdd195960621b60448201526064016103ef565b600081815260046020526040812060050180549091906112e4576112e4613438565b90600052602060002090602091828204019190069054906101000a900460ff16156113215760405162461bcd60e51b81526004016103ef9061355c565b60008181526005602090815260408083203384528252808320805460ff191660011790558483526004918290529091200154600160a81b900460ff166113a55760405162461bcd60e51b8152602060048201526019602482015278139bdd08184819dbdd995c9b985b98d9481c1c9bdc1bdcd85b603a1b60448201526064016103ef565b61083e3383612842565b6113b7612a7b565b6000828152600460208181526040928390208351610180810185528154815260018201548184015260028201548186015260038201546060820152928101546001600160a01b038116608085015260ff600160a01b8204811660a0860152600160a81b90910416151560c08401526005810180548551818502810185019096528086529394919360e086019383018282801561149257602002820191906000526020600020906000905b825461010083900a900460ff1615158152602060019283018181049485019490930390920291018084116114615790505b50505050508152602001600682018054806020026020016040519081016040528092919081815260200182805480156114f457602002820191906000526020600020905b81546001600160a01b031681526001909101906020018083116114d6575b505050505081526020016007820180548060200260200160405190810160405280929190818152602001828054801561154c57602002820191906000526020600020905b815481526020019060010190808311611538575b50505050508152602001600882018054806020026020016040519081016040528092919081815260200182805480156115c457602002820191906000526020600020906000905b825461010083900a900460ff1615158152602060019283018181049485019490930390920291018084116115935790505b5050505050815260200160098201805480602002602001604051908101604052809291908181526020016000905b8282101561169e57838290600052602060002001805461161190613521565b80601f016020809104026020016040519081016040528092919081815260200182805461163d90613521565b801561168a5780601f1061165f5761010080835404028352916020019161168a565b820191906000526020600020905b81548152906001019060200180831161166d57829003601f168201915b5050505050815260200190600101906115f2565b505050915250909392505050565b606081156117e357816001146117b7578160021461178d578160031461175c578160041461172d57816005146116fe57604051806040016040528060048152602001634e6f6e6560e01b8152506105c4565b6040518060400160405280601181526020017052657075746174696f6e20766f74696e6760781b8152506105c4565b60405180604001604052806011815260200170506172746e6572204f737472616369736d60781b8152506105c4565b604051806040016040528060138152602001724173736f6369617465206f737472616369736d60681b8152506105c4565b6040518060400160405280600c81526020016b4e657720706172746e65727360a01b8152506105c4565b6040518060400160405280600e81526020016d4e6577206173736f63696174657360901b8152506105c4565b50506040805180820190915260098152684e657720706f6c697360b81b602082015290565b60005460405163b8f66c5960e01b81523360048201526001600160a01b039091169063b8f66c599060240160206040518083038186803b15801561184b57600080fd5b505afa15801561185f573d6000803e3d6000fd5b505050506040513d601f19601f8201168201806040525081019061188391906134cd565b61189f5760405162461bcd60e51b81526004016103ef906134ea565b600082815260046020526040902060010154829042106118f45760405162461bcd60e51b815260206004820152601060248201526f159bdd1a5b99c81a185cc8195b99195960821b60448201526064016103ef565b600081815260056020908152604080832033845290915290205460ff16156119555760405162461bcd60e51b8152602060048201526014602482015273165bdd49dd9948185b1c9958591e481d9bdd195960621b60448201526064016103ef565b6000818152600460205260408120600501805490919061197757611977613438565b90600052602060002090602091828204019190069054906101000a900460ff16156119b45760405162461bcd60e51b81526004016103ef9061355c565b60008181526005602090815260408083203384528252808320805460ff191660011790558583526004918290529091200154600160a81b900460ff16158015611a1857506000838152600460208190526040909120810154600160a01b900460ff16115b611a645760405162461bcd60e51b815260206004820152601d60248201527f4e6f742061206e6f6e2d676f7665726e616e63652070726f706f73616c00000060448201526064016103ef565b6000838152600460205260409020600601805483908110611a8757611a87613438565b6000918252602090912001546001600160a01b0316331415611ad95760405162461bcd60e51b815260206004820152600b60248201526a53656c662d766f74696e6760a81b60448201526064016103ef565b600083815260046020526040902060070180546001919084908110611b0057611b00613438565b906000526020600020016000828254611b19919061349a565b90915550611b2990503384612842565b505050565b611b36612a7b565b60005460405163b8f66c5960e01b81523360048201526001600160a01b039091169063b8f66c599060240160206040518083038186803b158015611b7957600080fd5b505afa158015611b8d573d6000803e3d6000fd5b505050506040513d601f19601f82011682018060405250810190611bb191906134cd565b611bcd5760405162461bcd60e51b81526004016103ef906134ea565b611bd8898989610c05565b50835160011480611beb575060ff851615155b611c4b5760405162461bcd60e51b815260206004820152602b60248201527f4e657720706f6c69732070726f706f73616c2061636365707473206f6e6c792060448201526a6f6e65206164647265737360a81b60648201526084016103ef565b6002546000818152600460208181526040909220908101805461ffff60a01b1916600160a81b8b15150260ff60a01b191617600160a01b60ff8b160217905586519091611c9f916006840191890190612be8565b508451611cb59060078301906020880190612c3d565b508351611ccb9060088301906020870190612aea565b5060408051610180810182528254815260018301546020808301919091526002840154828401526003840154606083015260048401546001600160a01b038116608084015260ff600160a01b8204811660a0850152600160a81b90910416151560c08301526005840180548451818402810184019095528085529293859360e0860193919291830182828015611da057602002820191906000526020600020906000905b825461010083900a900460ff161515815260206001928301818104948501949093039092029101808411611d6f5790505b5050505050815260200160068201805480602002602001604051908101604052809291908181526020018280548015611e0257602002820191906000526020600020905b81546001600160a01b03168152600190910190602001808311611de4575b5050505050815260200160078201805480602002602001604051908101604052809291908181526020018280548015611e5a57602002820191906000526020600020905b815481526020019060010190808311611e46575b5050505050815260200160088201805480602002602001604051908101604052809291908181526020018280548015611ed257602002820191906000526020600020906000905b825461010083900a900460ff161515815260206001928301818104948501949093039092029101808411611ea15790505b5050505050815260200160098201805480602002602001604051908101604052809291908181526020016000905b82821015611fac578382906000526020600020018054611f1f90613521565b80601f0160208091040260200160405190810160405280929190818152602001828054611f4b90613521565b8015611f985780601f10611f6d57610100808354040283529160200191611f98565b820191906000526020600020905b815481529060010190602001808311611f7b57829003601f168201915b505050505081526020019060010190611f00565b505050915250909c9b505050505050505050505050565b60008060009054906101000a90046001600160a01b03166001600160a01b031663f2f8788a6040518163ffffffff1660e01b815260040160206040518083038186803b15801561201257600080fd5b505afa158015612026573d6000803e3d6000fd5b505050506040513d601f19601f8201168201806040525081019061204a919061359e565b905090565b60008181526004602052604090206005018054600191908290811061207657612076613438565b6000918252602080832081830401805460ff601f9094166101000a848102199091169515150294909417909355838252600492839052604090912090910154600160a01b900416612163576000805482825260046020526040822060060180546001600160a01b0390921692637e4cc585926120f4576120f4613438565b60009182526020909120015460405160e083901b6001600160e01b03191681526001600160a01b039091166004820152602401600060405180830381600087803b15801561214157600080fd5b505af1158015612155573d6000803e3d6000fd5b5050505061216333826128fe565b60008181526004602081905260409091200154600160a01b900460ff1660011415612206576000805482825260046020819052604092839020925163247aa87d60e21b81526001600160a01b03909216926391eaa1f4926121ca92600690920191016135b7565b600060405180830381600087803b1580156121e457600080fd5b505af11580156121f8573d6000803e3d6000fd5b5050505061220633826128fe565b60008181526004602081905260409091200154600160a01b900460ff16600214156122a95760008054828252600460208190526040928390209251630a85005560e31b81526001600160a01b039092169263542802a89261226d92600690920191016135b7565b600060405180830381600087803b15801561228757600080fd5b505af115801561229b573d6000803e3d6000fd5b505050506122a933826128fe565b60008181526004602081905260409091200154600160a01b900460ff166003141561243057600080548282526004602081905260409283902092516364ac112960e11b81526001600160a01b039092169263c95822529261231092600690920191016135b7565b600060405180830381600087803b15801561232a57600080fd5b505af115801561233e573d6000803e3d6000fd5b5050505060005b600082815260046020526040902060060154811015612425576006600060046000858152602001908152602001600020600601838154811061238957612389613438565b60009182526020808320909101546001600160a01b0316835282019290925260400181205460018054919290916123c1908490613483565b9091555050600082815260046020526040812060069081018054839190859081106123ee576123ee613438565b60009182526020808320909101546001600160a01b031683528201929092526040019020558061241d816134b2565b915050612345565b5061243033826128fe565b6000818152600460208190526040909120810154600160a01b900460ff1614156125b657600080548282526004602081905260409283902092516304f6b75360e31b81526001600160a01b03909216926327b5ba989261249692600690920191016135b7565b600060405180830381600087803b1580156124b057600080fd5b505af11580156124c4573d6000803e3d6000fd5b5050505060005b6000828152600460205260409020600601548110156125ab576006600060046000858152602001908152602001600020600601838154811061250f5761250f613438565b60009182526020808320909101546001600160a01b031683528201929092526040018120546001805491929091612547908490613483565b90915550506000828152600460205260408120600690810180548391908590811061257457612574613438565b60009182526020808320909101546001600160a01b03168352820192909252604001902055806125a3816134b2565b9150506124cb565b506125b633826128fe565b6007546001600160a01b038416600090815260066020526040812080546201000090930460ff16929091906125ec90849061349a565b90915550506007546001600160a01b03831660009081526006602052604081208054630100000090930460ff169290919061262890849061349a565b909155505060075461264c9060ff6301000000820481169162010000900416613607565b60ff1660016000828254612660919061349a565b90915550506040518181527f8dd9748cdd51fa2d40c42afd5346df1fc62648f4d2f42308a42e02547cc3b565906020015b60405180910390a1505050565b6000818152600460205260409020600501805460019190829081106126c5576126c5613438565b90600052602060002090602091828204019190066101000a81548160ff021916908315150217905550600760029054906101000a900460ff1660ff1660066000856001600160a01b03166001600160a01b0316815260200190815260200160002060008282546125ec919061349a565b60008181526004602052604090206005018054829190600190811061275c5761275c613438565b90600052602060002090602091828204019190069054906101000a900460ff166127c05760405162461bcd60e51b8152602060048201526015602482015274141c9bdc1bdcd85b081b9bdd08185c1c1c9bdd9959605a1b60448201526064016103ef565b600082815260046020526040902060050180546001919060029081106127e8576127e8613438565b90600052602060002090602091828204019190066101000a81548160ff0219169083151502179055507f103616e82ff731dff7ba12a2e8f4ee8092719781c951e26fb61427d34db64c918260405161091391815260200190565b600081815260046020526040812060020180546001929061286490849061349a565b90915550506007546001600160a01b0383166000908152600660205260408120805460ff9093169290919061289a90849061349a565b90915550506007546001805460ff909216916000906128ba90849061349a565b9091555050604080516001600160a01b0384168152602081018390527f1a6a8a65ed2c2326ce1bbc6781faf147de39c5f1853c8ae35e2ef13d60b76b629101610913565b60008181526004602052604090206005018054829190600190811061292557612925613438565b90600052602060002090602091828204019190069054906101000a900460ff166129895760405162461bcd60e51b8152602060048201526015602482015274141c9bdc1bdcd85b081b9bdd08185c1c1c9bdd9959605a1b60448201526064016103ef565b600082815260046020526040902060050180546001919060029081106129b1576129b1613438565b90600052602060002090602091828204019190066101000a81548160ff021916908315150217905550600760029054906101000a900460ff1660ff1660066000856001600160a01b03166001600160a01b031681526020019081526020016000206000828254612a21919061349a565b9091555050600754600180546201000090920460ff1691600090612a4690849061349a565b90915550506040518281527f103616e82ff731dff7ba12a2e8f4ee8092719781c951e26fb61427d34db64c9190602001612691565b6040518061018001604052806000815260200160008152602001600081526020016000815260200160006001600160a01b03168152602001600060ff16815260200160001515815260200160608152602001606081526020016060815260200160608152602001606081525090565b82805482825590600052602060002090601f01602090048101928215612b7f5791602002820160005b83821115612b5057835183826101000a81548160ff0219169083151502179055509260200192600101602081600001049283019260010302612b13565b8015612b7d5782816101000a81549060ff0219169055600101602081600001049283019260010302612b50565b505b50612b8b929150612c78565b5090565b828054828255906000526020600020908101928215612bdc579160200282015b82811115612bdc5782518051612bcc918491602090910190612c8d565b5091602001919060010190612baf565b50612b8b929150612d00565b828054828255906000526020600020908101928215612b7f579160200282015b82811115612b7f57825182546001600160a01b0319166001600160a01b03909116178255602090920191600190910190612c08565b828054828255906000526020600020908101928215612b7f579160200282015b82811115612b7f578251825591602001919060010190612c5d565b5b80821115612b8b5760008155600101612c79565b828054612c9990613521565b90600052602060002090601f016020900481019282612cbb5760008555612b7f565b82601f10612cd457805160ff1916838001178555612b7f565b82800160010185558215612b7f5791820182811115612b7f578251825591602001919060010190612c5d565b80821115612b8b576000612d148282612d1d565b50600101612d00565b508054612d2990613521565b6000825580601f10612d39575050565b601f016020900490600052602060002090810190612d579190612c78565b50565b600060208284031215612d6c57600080fd5b5035919050565b80356001600160a01b0381168114612d8a57600080fd5b919050565b600060208284031215612da157600080fd5b612daa82612d73565b9392505050565b6000815180845260005b81811015612dd757602081850181015186830182015201612dbb565b81811115612de9576000602083870101525b50601f01601f19169290920160200192915050565b602081526000612daa6020830184612db1565b634e487b7160e01b600052604160045260246000fd5b604051601f8201601f1916810167ffffffffffffffff81118282101715612e5057612e50612e11565b604052919050565b600067ffffffffffffffff821115612e7257612e72612e11565b5060051b60200190565b6000601f8381840112612e8e57600080fd5b82356020612ea3612e9e83612e58565b612e27565b82815260059290921b85018101918181019087841115612ec257600080fd5b8287015b84811015612f5957803567ffffffffffffffff80821115612ee75760008081fd5b818a0191508a603f830112612efc5760008081fd5b85820135604082821115612f1257612f12612e11565b612f23828b01601f19168901612e27565b92508183528c81838601011115612f3a5760008081fd5b8181850189850137506000908201870152845250918301918301612ec6565b50979650505050505050565b600080600060608486031215612f7a57600080fd5b833567ffffffffffffffff811115612f9157600080fd5b612f9d86828701612e7c565b9660208601359650604090950135949350505050565b600081518084526020808501945080840160005b83811015612fe5578151151587529582019590820190600101612fc7565b509495945050505050565b600081518084526020808501945080840160005b83811015612fe55781516001600160a01b031687529582019590820190600101613004565b600081518084526020808501945080840160005b83811015612fe55781518752958201959082019060010161303d565b600081518084526020808501808196508360051b8101915082860160005b858110156130a157828403895261308f848351612db1565b98850198935090840190600101613077565b5091979650505050505050565b6020815281516020820152602082015160408201526040820151606082015260608201516080820152600060808301516130f360a08401826001600160a01b03169052565b5060a083015160ff811660c08401525060c083015180151560e08401525060e0830151610180610100818186015261312f6101a0860184612fb3565b9250808601519050601f196101208187860301818801526131508584612ff0565b94508088015192505061014081878603018188015261316f8584613029565b94508088015192505061016081878603018188015261318e8584612fb3565b9088015187820390920184880152935090506131aa8382613059565b9695505050505050565b600080604083850312156131c757600080fd5b6131d083612d73565b946020939093013593505050565b600080604083850312156131f157600080fd5b50508035926020909101359150565b8015158114612d5757600080fd5b8035612d8a81613200565b803560ff81168114612d8a57600080fd5b600082601f83011261323b57600080fd5b8135602061324b612e9e83612e58565b82815260059290921b8401810191818101908684111561326a57600080fd5b8286015b8481101561328c5761327f81612d73565b835291830191830161326e565b509695505050505050565b600082601f8301126132a857600080fd5b813560206132b8612e9e83612e58565b82815260059290921b840181019181810190868411156132d757600080fd5b8286015b8481101561328c57803583529183019183016132db565b600082601f83011261330357600080fd5b81356020613313612e9e83612e58565b82815260059290921b8401810191818101908684111561333257600080fd5b8286015b8481101561328c57803561334981613200565b8352918301918301613336565b600080600080600080600080610100898b03121561337357600080fd5b883567ffffffffffffffff8082111561338b57600080fd5b6133978c838d01612e7c565b995060208b0135985060408b013597506133b360608c0161320e565b96506133c160808c01613219565b955060a08b01359150808211156133d757600080fd5b6133e38c838d0161322a565b945060c08b01359150808211156133f957600080fd5b6134058c838d01613297565b935060e08b013591508082111561341b57600080fd5b506134288b828c016132f2565b9150509295985092959890939650565b634e487b7160e01b600052603260045260246000fd5b634e487b7160e01b600052601160045260246000fd5b600081600019048311821515161561347e5761347e61344e565b500290565b6000828210156134955761349561344e565b500390565b600082198211156134ad576134ad61344e565b500190565b60006000198214156134c6576134c661344e565b5060010190565b6000602082840312156134df57600080fd5b8151612daa81613200565b6020808252601a908201527f43616c6c6572206973206e6f7420616e204173736f6369617465000000000000604082015260600190565b600181811c9082168061353557607f821691505b6020821081141561355657634e487b7160e01b600052602260045260246000fd5b50919050565b60208082526022908201527f50726f706f73616c2068617320616c7265616479206265656e20617070726f76604082015261195960f21b606082015260800190565b6000602082840312156135b057600080fd5b5051919050565b6020808252825482820181905260008481528281209092916040850190845b818110156135fb5783546001600160a01b0316835260019384019392850192016135d6565b50909695505050505050565b600060ff821660ff84168060ff038211156136245761362461344e565b01939250505056fea2646970667358221220ab86f9e28270c381d388bfb3b1f30ac2e09ad375545debfddcd19146504b753964736f6c63430008090033",
  "linkReferences": {},
  "deployedLinkReferences": {}
}